{
  "abi": [
    {
      "inputs": [
        {
          "internalType": "uint256",
          "name": "",
          "type": "uint256"
        }
      ],
      "name": "approvers",
      "outputs": [
        {
          "internalType": "uint256",
          "name": "",
          "type": "uint256"
        }
      ],
      "stateMutability": "view",
      "type": "function"
    },
    {
      "inputs": [
        {
          "internalType": "uint256",
          "name": "approverToRemove",
          "type": "uint256"
        }
      ],
      "name": "removeApprover",
      "outputs": [],
      "stateMutability": "nonpayable",
      "type": "function"
    }
  ],
  "bytecode": {
    "object": "0x61010060405260016080908152600260a052600360c052600460e08190526100299160009161003c565b5034801561003657600080fd5b506100a1565b82805482825590600052602060002090810192821561007c579160200282015b8281111561007c578251829060ff1690559160200191906001019061005c565b5061008892915061008c565b5090565b5b80821115610088576000815560010161008d565b61026a806100b06000396000f3fe608060405234801561001057600080fd5b50600436106100365760003560e01c8063d3650fb81461003b578063e349523814610060575b600080fd5b61004e6100493660046101a7565b610075565b60405190815260200160405180910390f35b61007361006e3660046101a7565b610096565b005b6000818154811061008557600080fd5b600091825260209091200154905081565b60008060005b6000548110156100e85783600082815481106100ba576100ba6101c0565b9060005260206000200154036100d657809250600191506100e8565b806100e0816101ec565b91505061009c565b508061012f5760405162461bcd60e51b8152602060048201526012602482015271105c1c1c9bdd995c881b9bdd08199bdd5b9960721b604482015260640160405180910390fd5b6000805461013f90600190610205565b8154811061014f5761014f6101c0565b90600052602060002001546000838154811061016d5761016d6101c0565b9060005260206000200181905550600080548061018c5761018c61021e565b60019003818190600052602060002001600090559055505050565b6000602082840312156101b957600080fd5b5035919050565b634e487b7160e01b600052603260045260246000fd5b634e487b7160e01b600052601160045260246000fd5b6000600182016101fe576101fe6101d6565b5060010190565b81810381811115610218576102186101d6565b92915050565b634e487b7160e01b600052603160045260246000fdfea2646970667358221220c8e51c0945ffc676d77fab19c8da8173ea2f099ccb823313099c13f1bc959e2b64736f6c63430008150033",
    "linkReferences": {}
  },
  "methodIdentifiers": {
    "approvers(uint256)": "d3650fb8",
    "removeApprover(uint256)": "e3495238"
  },
  "id": 27
}