{
  "abi": [
    {
      "inputs": [
        {
          "internalType": "uint256",
          "name": "_initialValue",
          "type": "uint256"
        }
      ],
      "stateMutability": "nonpayable",
      "type": "constructor"
    },
    {
      "inputs": [
        {
          "internalType": "uint256",
          "name": "_a",
          "type": "uint256"
        },
        {
          "internalType": "uint256",
          "name": "_b",
          "type": "uint256"
        }
      ],
      "name": "addNumbers",
      "outputs": [
        {
          "internalType": "uint256",
          "name": "",
          "type": "uint256"
        }
      ],
      "stateMutability": "pure",
      "type": "function"
    },
    {
      "inputs": [
        {
          "internalType": "uint256",
          "name": "_number",
          "type": "uint256"
        }
      ],
      "name": "doubleNumber",
      "outputs": [
        {
          "internalType": "uint256",
          "name": "",
          "type": "uint256"
        }
      ],
      "stateMutability": "pure",
      "type": "function"
    },
    {
      "inputs": [],
      "name": "stateVariable",
      "outputs": [
        {
          "internalType": "uint256",
          "name": "",
          "type": "uint256"
        }
      ],
      "stateMutability": "view",
      "type": "function"
    }
  ],
  "bytecode": {
    "object": "0x608060405234801561001057600080fd5b506040516101bd3803806101bd83398101604081905261002f91610037565b600055610050565b60006020828403121561004957600080fd5b5051919050565b61015e8061005f6000396000f3fe608060405234801561001057600080fd5b50600436106100415760003560e01c8063d30a6c8414610046578063e1967eae1461006b578063ef9fc50b14610074575b600080fd5b6100596100543660046100ad565b610087565b60405190815260200160405180910390f35b61005960005481565b6100596100823660046100c6565b61009a565b60006100948260026100fe565b92915050565b60006100a68284610115565b9392505050565b6000602082840312156100bf57600080fd5b5035919050565b600080604083850312156100d957600080fd5b50508035926020909101359150565b634e487b7160e01b600052601160045260246000fd5b8082028115828204841417610094576100946100e8565b80820180821115610094576100946100e856fea26469706673582212208278fefc8ce141093a7da6eec4c80b96aea63461f6949a0666b6842b90e5e22164736f6c63430008150033",
    "linkReferences": {}
  },
  "methodIdentifiers": {
    "addNumbers(uint256,uint256)": "ef9fc50b",
    "doubleNumber(uint256)": "d30a6c84",
    "stateVariable()": "e1967eae"
  },
  "id": 35
}