{
  "abi": [
    {
      "inputs": [
        {
          "internalType": "address[]",
          "name": "_owners",
          "type": "address[]"
        },
        {
          "internalType": "uint256",
          "name": "_quorum",
          "type": "uint256"
        }
      ],
      "stateMutability": "nonpayable",
      "type": "constructor"
    },
    {
      "anonymous": false,
      "inputs": [
        {
          "indexed": true,
          "internalType": "uint256",
          "name": "id",
          "type": "uint256"
        },
        {
          "indexed": true,
          "internalType": "address",
          "name": "owner",
          "type": "address"
        }
      ],
      "name": "ApproverRemovalProposed",
      "type": "event"
    },
    {
      "anonymous": false,
      "inputs": [
        {
          "indexed": true,
          "internalType": "address",
          "name": "sender",
          "type": "address"
        },
        {
          "indexed": false,
          "internalType": "uint256",
          "name": "amount",
          "type": "uint256"
        }
      ],
      "name": "FallbackCalled",
      "type": "event"
    },
    {
      "anonymous": false,
      "inputs": [
        {
          "indexed": true,
          "internalType": "uint256",
          "name": "id",
          "type": "uint256"
        },
        {
          "indexed": true,
          "internalType": "address",
          "name": "owner",
          "type": "address"
        }
      ],
      "name": "OwnerRemovalApprovalRevoked",
      "type": "event"
    },
    {
      "anonymous": false,
      "inputs": [
        {
          "indexed": true,
          "internalType": "uint256",
          "name": "id",
          "type": "uint256"
        },
        {
          "indexed": true,
          "internalType": "address",
          "name": "owner",
          "type": "address"
        }
      ],
      "name": "OwnerRemoved",
      "type": "event"
    },
    {
      "anonymous": false,
      "inputs": [
        {
          "indexed": true,
          "internalType": "address",
          "name": "sender",
          "type": "address"
        },
        {
          "indexed": false,
          "internalType": "uint256",
          "name": "amount",
          "type": "uint256"
        }
      ],
      "name": "Received",
      "type": "event"
    },
    {
      "anonymous": false,
      "inputs": [
        {
          "indexed": true,
          "internalType": "uint256",
          "name": "id",
          "type": "uint256"
        },
        {
          "indexed": true,
          "internalType": "address",
          "name": "owner",
          "type": "address"
        }
      ],
      "name": "TransactionApprovedBy",
      "type": "event"
    },
    {
      "anonymous": false,
      "inputs": [
        {
          "indexed": true,
          "internalType": "uint256",
          "name": "id",
          "type": "uint256"
        },
        {
          "indexed": true,
          "internalType": "address",
          "name": "to",
          "type": "address"
        },
        {
          "indexed": false,
          "internalType": "uint256",
          "name": "amount",
          "type": "uint256"
        }
      ],
      "name": "TransactionExecuted",
      "type": "event"
    },
    {
      "anonymous": false,
      "inputs": [
        {
          "indexed": true,
          "internalType": "uint256",
          "name": "id",
          "type": "uint256"
        },
        {
          "indexed": true,
          "internalType": "address",
          "name": "to",
          "type": "address"
        },
        {
          "indexed": false,
          "internalType": "uint256",
          "name": "amount",
          "type": "uint256"
        }
      ],
      "name": "TransactionProposed",
      "type": "event"
    },
    {
      "anonymous": false,
      "inputs": [
        {
          "indexed": true,
          "internalType": "uint256",
          "name": "id",
          "type": "uint256"
        },
        {
          "indexed": true,
          "internalType": "address",
          "name": "owner",
          "type": "address"
        }
      ],
      "name": "TransactionRevoked",
      "type": "event"
    },
    {
      "anonymous": false,
      "inputs": [
        {
          "indexed": true,
          "internalType": "uint256",
          "name": "id",
          "type": "uint256"
        },
        {
          "indexed": true,
          "internalType": "address",
          "name": "_newOwner",
          "type": "address"
        }
      ],
      "name": "newOwnerApproved",
      "type": "event"
    },
    {
      "anonymous": false,
      "inputs": [
        {
          "indexed": true,
          "internalType": "address",
          "name": "_newOwner",
          "type": "address"
        }
      ],
      "name": "newOwnerProposed",
      "type": "event"
    },
    {
      "anonymous": false,
      "inputs": [
        {
          "indexed": true,
          "internalType": "uint256",
          "name": "_newQuorum",
          "type": "uint256"
        }
      ],
      "name": "newQuorum",
      "type": "event"
    },
    {
      "anonymous": false,
      "inputs": [
        {
          "indexed": true,
          "internalType": "uint256",
          "name": "_newQuorum",
          "type": "uint256"
        }
      ],
      "name": "newQuorumProposed",
      "type": "event"
    },
    {
      "stateMutability": "payable",
      "type": "fallback"
    },
    {
      "inputs": [
        {
          "internalType": "address",
          "name": "",
          "type": "address"
        },
        {
          "internalType": "uint256",
          "name": "",
          "type": "uint256"
        }
      ],
      "name": "approvals",
      "outputs": [
        {
          "internalType": "bool",
          "name": "",
          "type": "bool"
        }
      ],
      "stateMutability": "view",
      "type": "function"
    },
    {
      "inputs": [
        {
          "internalType": "uint256",
          "name": "id",
          "type": "uint256"
        }
      ],
      "name": "approveTransaction",
      "outputs": [],
      "stateMutability": "nonpayable",
      "type": "function"
    },
    {
      "inputs": [
        {
          "internalType": "uint256",
          "name": "id",
          "type": "uint256"
        }
      ],
      "name": "confirmOwnerRemoval",
      "outputs": [],
      "stateMutability": "nonpayable",
      "type": "function"
    },
    {
      "inputs": [],
      "name": "getBalance",
      "outputs": [
        {
          "internalType": "uint256",
          "name": "",
          "type": "uint256"
        }
      ],
      "stateMutability": "view",
      "type": "function"
    },
    {
      "inputs": [],
      "name": "getOwnerProposals",
      "outputs": [
        {
          "components": [
            {
              "internalType": "uint256",
              "name": "id",
              "type": "uint256"
            },
            {
              "internalType": "address",
              "name": "newOwner",
              "type": "address"
            },
            {
              "internalType": "uint256",
              "name": "approvals",
              "type": "uint256"
            },
            {
              "internalType": "bool",
              "name": "executed",
              "type": "bool"
            }
          ],
          "internalType": "struct MultiSigWallet.OwnerProposal[]",
          "name": "",
          "type": "tuple[]"
        }
      ],
      "stateMutability": "view",
      "type": "function"
    },
    {
      "inputs": [],
      "name": "getOwnerRemovalProposals",
      "outputs": [
        {
          "components": [
            {
              "internalType": "uint256",
              "name": "id",
              "type": "uint256"
            },
            {
              "internalType": "address",
              "name": "ownerToRemove",
              "type": "address"
            },
            {
              "internalType": "uint256",
              "name": "approvals",
              "type": "uint256"
            },
            {
              "internalType": "bool",
              "name": "executed",
              "type": "bool"
            }
          ],
          "internalType": "struct MultiSigWallet.OwnerRemovalProposal[]",
          "name": "",
          "type": "tuple[]"
        }
      ],
      "stateMutability": "view",
      "type": "function"
    },
    {
      "inputs": [],
      "name": "getOwners",
      "outputs": [
        {
          "internalType": "address[]",
          "name": "",
          "type": "address[]"
        }
      ],
      "stateMutability": "view",
      "type": "function"
    },
    {
      "inputs": [],
      "name": "getQuorum",
      "outputs": [
        {
          "internalType": "uint256",
          "name": "",
          "type": "uint256"
        }
      ],
      "stateMutability": "view",
      "type": "function"
    },
    {
      "inputs": [],
      "name": "getQuorumChangeProposals",
      "outputs": [
        {
          "components": [
            {
              "internalType": "uint256",
              "name": "id",
              "type": "uint256"
            },
            {
              "internalType": "uint256",
              "name": "newQuorum",
              "type": "uint256"
            },
            {
              "internalType": "uint256",
              "name": "approvals",
              "type": "uint256"
            },
            {
              "internalType": "bool",
              "name": "executed",
              "type": "bool"
            }
          ],
          "internalType": "struct MultiSigWallet.QuorumChangeProposal[]",
          "name": "",
          "type": "tuple[]"
        }
      ],
      "stateMutability": "view",
      "type": "function"
    },
    {
      "inputs": [
        {
          "internalType": "uint256",
          "name": "id",
          "type": "uint256"
        }
      ],
      "name": "getTransactionByIndex",
      "outputs": [
        {
          "components": [
            {
              "internalType": "uint256",
              "name": "id",
              "type": "uint256"
            },
            {
              "internalType": "uint256",
              "name": "amount",
              "type": "uint256"
            },
            {
              "internalType": "address payable",
              "name": "to",
              "type": "address"
            },
            {
              "internalType": "uint256",
              "name": "approvals",
              "type": "uint256"
            },
            {
              "internalType": "bool",
              "name": "executed",
              "type": "bool"
            }
          ],
          "internalType": "struct MultiSigWallet.Transaction",
          "name": "",
          "type": "tuple"
        }
      ],
      "stateMutability": "view",
      "type": "function"
    },
    {
      "inputs": [],
      "name": "getTransactions",
      "outputs": [
        {
          "components": [
            {
              "internalType": "uint256",
              "name": "id",
              "type": "uint256"
            },
            {
              "internalType": "uint256",
              "name": "amount",
              "type": "uint256"
            },
            {
              "internalType": "address payable",
              "name": "to",
              "type": "address"
            },
            {
              "internalType": "uint256",
              "name": "approvals",
              "type": "uint256"
            },
            {
              "internalType": "bool",
              "name": "executed",
              "type": "bool"
            }
          ],
          "internalType": "struct MultiSigWallet.Transaction[]",
          "name": "",
          "type": "tuple[]"
        }
      ],
      "stateMutability": "view",
      "type": "function"
    },
    {
      "inputs": [],
      "name": "getTransactionsCount",
      "outputs": [
        {
          "internalType": "uint256",
          "name": "",
          "type": "uint256"
        }
      ],
      "stateMutability": "view",
      "type": "function"
    },
    {
      "inputs": [
        {
          "internalType": "address",
          "name": "",
          "type": "address"
        }
      ],
      "name": "isOwner",
      "outputs": [
        {
          "internalType": "bool",
          "name": "",
          "type": "bool"
        }
      ],
      "stateMutability": "view",
      "type": "function"
    },
    {
      "inputs": [
        {
          "internalType": "uint256",
          "name": "id",
          "type": "uint256"
        }
      ],
      "name": "newOwnerApproval",
      "outputs": [],
      "stateMutability": "nonpayable",
      "type": "function"
    },
    {
      "inputs": [
        {
          "internalType": "address",
          "name": "_newOwner",
          "type": "address"
        }
      ],
      "name": "newOwnerProposal",
      "outputs": [],
      "stateMutability": "nonpayable",
      "type": "function"
    },
    {
      "inputs": [
        {
          "internalType": "address",
          "name": "",
          "type": "address"
        },
        {
          "internalType": "uint256",
          "name": "",
          "type": "uint256"
        }
      ],
      "name": "ownerApprovals",
      "outputs": [
        {
          "internalType": "bool",
          "name": "",
          "type": "bool"
        }
      ],
      "stateMutability": "view",
      "type": "function"
    },
    {
      "inputs": [
        {
          "internalType": "uint256",
          "name": "",
          "type": "uint256"
        }
      ],
      "name": "ownerProposals",
      "outputs": [
        {
          "internalType": "uint256",
          "name": "id",
          "type": "uint256"
        },
        {
          "internalType": "address",
          "name": "newOwner",
          "type": "address"
        },
        {
          "internalType": "uint256",
          "name": "approvals",
          "type": "uint256"
        },
        {
          "internalType": "bool",
          "name": "executed",
          "type": "bool"
        }
      ],
      "stateMutability": "view",
      "type": "function"
    },
    {
      "inputs": [
        {
          "internalType": "address",
          "name": "",
          "type": "address"
        },
        {
          "internalType": "uint256",
          "name": "",
          "type": "uint256"
        }
      ],
      "name": "ownerRemovalApprovals",
      "outputs": [
        {
          "internalType": "bool",
          "name": "",
          "type": "bool"
        }
      ],
      "stateMutability": "view",
      "type": "function"
    },
    {
      "inputs": [
        {
          "internalType": "address",
          "name": "",
          "type": "address"
        }
      ],
      "name": "ownerRemovalProposalList",
      "outputs": [
        {
          "internalType": "bool",
          "name": "",
          "type": "bool"
        }
      ],
      "stateMutability": "view",
      "type": "function"
    },
    {
      "inputs": [
        {
          "internalType": "uint256",
          "name": "",
          "type": "uint256"
        }
      ],
      "name": "ownerRemovalProposals",
      "outputs": [
        {
          "internalType": "uint256",
          "name": "id",
          "type": "uint256"
        },
        {
          "internalType": "address",
          "name": "ownerToRemove",
          "type": "address"
        },
        {
          "internalType": "uint256",
          "name": "approvals",
          "type": "uint256"
        },
        {
          "internalType": "bool",
          "name": "executed",
          "type": "bool"
        }
      ],
      "stateMutability": "view",
      "type": "function"
    },
    {
      "inputs": [
        {
          "internalType": "uint256",
          "name": "",
          "type": "uint256"
        }
      ],
      "name": "owners",
      "outputs": [
        {
          "internalType": "address",
          "name": "",
          "type": "address"
        }
      ],
      "stateMutability": "view",
      "type": "function"
    },
    {
      "inputs": [
        {
          "internalType": "address",
          "name": "_ownerToRemove",
          "type": "address"
        }
      ],
      "name": "proposeOwnerRemoval",
      "outputs": [],
      "stateMutability": "nonpayable",
      "type": "function"
    },
    {
      "inputs": [
        {
          "internalType": "uint256",
          "name": "_newQuorum",
          "type": "uint256"
        }
      ],
      "name": "proposeQuorumChange",
      "outputs": [],
      "stateMutability": "nonpayable",
      "type": "function"
    },
    {
      "inputs": [
        {
          "internalType": "uint256",
          "name": "_amount",
          "type": "uint256"
        },
        {
          "internalType": "address payable",
          "name": "_to",
          "type": "address"
        }
      ],
      "name": "proposeTransaction",
      "outputs": [],
      "stateMutability": "nonpayable",
      "type": "function"
    },
    {
      "inputs": [],
      "name": "quorum",
      "outputs": [
        {
          "internalType": "uint256",
          "name": "",
          "type": "uint256"
        }
      ],
      "stateMutability": "view",
      "type": "function"
    },
    {
      "inputs": [
        {
          "internalType": "address",
          "name": "",
          "type": "address"
        },
        {
          "internalType": "uint256",
          "name": "",
          "type": "uint256"
        }
      ],
      "name": "quorumApprovals",
      "outputs": [
        {
          "internalType": "bool",
          "name": "",
          "type": "bool"
        }
      ],
      "stateMutability": "view",
      "type": "function"
    },
    {
      "inputs": [
        {
          "internalType": "uint256",
          "name": "id",
          "type": "uint256"
        }
      ],
      "name": "quorumChangeApproval",
      "outputs": [],
      "stateMutability": "nonpayable",
      "type": "function"
    },
    {
      "inputs": [
        {
          "internalType": "uint256",
          "name": "",
          "type": "uint256"
        }
      ],
      "name": "quorumChangeProposals",
      "outputs": [
        {
          "internalType": "uint256",
          "name": "id",
          "type": "uint256"
        },
        {
          "internalType": "uint256",
          "name": "newQuorum",
          "type": "uint256"
        },
        {
          "internalType": "uint256",
          "name": "approvals",
          "type": "uint256"
        },
        {
          "internalType": "bool",
          "name": "executed",
          "type": "bool"
        }
      ],
      "stateMutability": "view",
      "type": "function"
    },
    {
      "inputs": [
        {
          "internalType": "uint256",
          "name": "id",
          "type": "uint256"
        }
      ],
      "name": "removeOwnerRemovalApproval",
      "outputs": [],
      "stateMutability": "nonpayable",
      "type": "function"
    },
    {
      "inputs": [
        {
          "internalType": "uint256",
          "name": "id",
          "type": "uint256"
        }
      ],
      "name": "removeQuorumChangeApproval",
      "outputs": [],
      "stateMutability": "nonpayable",
      "type": "function"
    },
    {
      "inputs": [
        {
          "internalType": "uint256",
          "name": "id",
          "type": "uint256"
        }
      ],
      "name": "revokeApproval",
      "outputs": [],
      "stateMutability": "nonpayable",
      "type": "function"
    },
    {
      "inputs": [
        {
          "internalType": "uint256",
          "name": "",
          "type": "uint256"
        }
      ],
      "name": "transactions",
      "outputs": [
        {
          "internalType": "uint256",
          "name": "id",
          "type": "uint256"
        },
        {
          "internalType": "uint256",
          "name": "amount",
          "type": "uint256"
        },
        {
          "internalType": "address payable",
          "name": "to",
          "type": "address"
        },
        {
          "internalType": "uint256",
          "name": "approvals",
          "type": "uint256"
        },
        {
          "internalType": "bool",
          "name": "executed",
          "type": "bool"
        }
      ],
      "stateMutability": "view",
      "type": "function"
    },
    {
      "stateMutability": "payable",
      "type": "receive"
    }
  ],
  "bytecode": {
    "object": "0x60806040523480156200001157600080fd5b5060405162002c5238038062002c52833981016040819052620000349162000178565b815162000049906000906020850190620000c4565b5060005b8251811015620000b95760016006600085848151811062000072576200007262000252565b6020908102919091018101516001600160a01b03168252810191909152604001600020805460ff191691151591909117905580620000b08162000268565b9150506200004d565b506001555062000290565b8280548282559060005260206000209081019282156200011c579160200282015b828111156200011c57825182546001600160a01b0319166001600160a01b03909116178255602090920191600190910190620000e5565b506200012a9291506200012e565b5090565b5b808211156200012a57600081556001016200012f565b634e487b7160e01b600052604160045260246000fd5b80516001600160a01b03811681146200017357600080fd5b919050565b600080604083850312156200018c57600080fd5b82516001600160401b0380821115620001a457600080fd5b818501915085601f830112620001b957600080fd5b8151602082821115620001d057620001d062000145565b8160051b604051601f19603f83011681018181108682111715620001f857620001f862000145565b6040529283528183019350848101820192898411156200021757600080fd5b948201945b83861015620002405762000230866200015b565b855294820194938201936200021c565b97909101519698969750505050505050565b634e487b7160e01b600052603260045260246000fd5b6000600182016200028957634e487b7160e01b600052601160045260246000fd5b5060010190565b6129b280620002a06000396000f3fe6080604052600436106101e75760003560e01c806366e3b0d811610102578063b1e130fc11610095578063e3bec20e11610064578063e3bec20e146106d3578063f6ba5d0e1461070e578063fb16664f1461072e578063ffabc6731461074e57610224565b8063b1e130fc14610643578063b2f09bca14610663578063c26c12eb1461069e578063d39258ca146106b357610224565b806386be11e4116100d157806386be11e4146105895780639ace38c2146105a9578063a0e67e2b14610601578063b0ce48d91461062357610224565b806366e3b0d8146104fa5780637045ce8e1461051a57806383920e901461053a578063869152e71461055c57610224565b80633f84203d1161017a578063604abc6311610149578063604abc6314610466578063634a859114610488578063648e2f45146104a857806364fe7256146104d857610224565b80633f84203d146103b2578063578cb8f9146103ed578063586641661461040257806358f5c9c31461044457610224565b80631a2df282116101b65780631a2df2821461031057806320af4e3e14610332578063242232d1146103525780632f54bf6e1461037257610224565b8063025e7c27146102565780630bb1e8c01461029357806312065fe0146102dd5780631703a018146102fa57610224565b366102245760405134815233907f88a5966d370b9919b20f3e2c13ff65706f196a4e32cc2c12bf57088f88525874906020015b60405180910390a2005b60405134815233907f4fdfaf7cd2ae67f3639149bddef2addc991d3f26e0121df03517ec62523649ca9060200161021a565b34801561026257600080fd5b506102766102713660046125b1565b610789565b6040516001600160a01b0390911681526020015b60405180910390f35b34801561029f57600080fd5b506102b36102ae3660046125b1565b6107b3565b604080519485526001600160a01b039093166020850152918301521515606082015260800161028a565b3480156102e957600080fd5b50475b60405190815260200161028a565b34801561030657600080fd5b506102ec60015481565b34801561031c57600080fd5b5061033061032b3660046125b1565b6107f9565b005b34801561033e57600080fd5b5061033061034d3660046125b1565b610a6d565b34801561035e57600080fd5b5061033061036d3660046125b1565b610c56565b34801561037e57600080fd5b506103a261038d3660046125e2565b60066020526000908152604090205460ff1681565b604051901515815260200161028a565b3480156103be57600080fd5b506103a26103cd366004612606565b600760209081526000928352604080842090915290825290205460ff1681565b3480156103f957600080fd5b506005546102ec565b34801561040e57600080fd5b5061042261041d3660046125b1565b610f91565b604080519485526020850193909352918301521515606082015260800161028a565b34801561045057600080fd5b50610459610fce565b60405161028a9190612632565b34801561047257600080fd5b5061047b611054565b60405161028a9190612698565b34801561049457600080fd5b506103306104a33660046125b1565b6110da565b3480156104b457600080fd5b506103a26104c33660046125e2565b600b6020526000908152604090205460ff1681565b3480156104e457600080fd5b506104ed61151f565b60405161028a919061270f565b34801561050657600080fd5b5061033061051536600461277a565b6115a4565b34801561052657600080fd5b506103306105353660046125b1565b611781565b34801561054657600080fd5b5061054f611967565b60405161028a91906127e2565b34801561056857600080fd5b5061057c6105773660046125b1565b6119f7565b60405161028a9190612824565b34801561059557600080fd5b506103306105a43660046125b1565b611aed565b3480156105b557600080fd5b506105c96105c43660046125b1565b611c21565b6040805195865260208601949094526001600160a01b039092169284019290925260608301919091521515608082015260a00161028a565b34801561060d57600080fd5b50610616611c6f565b60405161028a9190612838565b34801561062f57600080fd5b5061033061063e3660046125e2565b611cd1565b34801561064f57600080fd5b5061033061065e3660046125b1565b611fa5565b34801561066f57600080fd5b506103a261067e366004612606565b600a60209081526000928352604080842090915290825290205460ff1681565b3480156106aa57600080fd5b506001546102ec565b3480156106bf57600080fd5b506102b36106ce3660046125b1565b612176565b3480156106df57600080fd5b506103a26106ee366004612606565b600960209081526000928352604080842090915290825290205460ff1681565b34801561071a57600080fd5b506103306107293660046125b1565b612186565b34801561073a57600080fd5b506103306107493660046125e2565b6123f3565b34801561075a57600080fd5b506103a2610769366004612606565b600860209081526000928352604080842090915290825290205460ff1681565b6000818154811061079957600080fd5b6000918252602090912001546001600160a01b0316905081565b600381815481106107c357600080fd5b600091825260209091206004909102018054600182015460028301546003909301549193506001600160a01b0316919060ff1684565b3360008181526006602052604090205460ff166108315760405162461bcd60e51b815260040161082890612879565b60405180910390fd5b33600090815260096020908152604080832085845290915290205460ff161561089c5760405162461bcd60e51b815260206004820152601a60248201527f63616e6e6f7420617070726f7665206f776e65722074776963650000000000006044820152606401610828565b3360009081526009602090815260408083208584529091529020805460ff1916600117905560028054839081106108d5576108d56128a7565b6000918252602082206002600490920201018054916108f3836128d3565b91905055506001546002838154811061090e5761090e6128a7565b90600052602060002090600402016002015410610a695760016002838154811061093a5761093a6128a7565b906000526020600020906004020160030160006101000a81548160ff0219169083151502179055506001600660006002858154811061097b5761097b6128a7565b60009182526020808320600492909202909101600101546001600160a01b031683528201929092526040018120805460ff19169215159290921790915560028054849081106109cc576109cc6128a7565b600091825260208083206001600490930201820154845492830185559383529091200180546001600160a01b0319166001600160a01b039092169190911790556002805483908110610a2057610a206128a7565b600091825260208220600160049092020101546040516001600160a01b039091169184917f2f2b666b989e5a747f5dc38178d1c950b658c98b078ed31fcc8a596b71cd6d419190a35b5050565b3360008181526006602052604090205460ff16610a9c5760405162461bcd60e51b815260040161082890612879565b33600090815260076020908152604080832085845290915290205460ff1615610b125760405162461bcd60e51b815260206004820152602260248201527f63616e6e6f7420617070726f76652071756f72756d206368616e676520747769604482015261636560f01b6064820152608401610828565b60048281548110610b2557610b256128a7565b600091825260208220600260049092020101805491610b43836128d3565b90915550503360009081526007602090815260408083208584529091529020805460ff19166001908117909155546004805484908110610b8557610b856128a7565b90600052602060002090600402016002015410610a6957600160048381548110610bb157610bb16128a7565b906000526020600020906004020160030160006101000a81548160ff02191690831515021790555060048281548110610bec57610bec6128a7565b90600052602060002090600402016001015460018190555060048281548110610c1757610c176128a7565b6000918252602082206001600490920201015460405190917f269bcd02d8587bdc2122912d4a0990dc259b4b0557c99899210bba16ffa7c83391a25050565b3360008181526006602052604090205460ff16610c855760405162461bcd60e51b815260040161082890612879565b6005548210610ccf5760405162461bcd60e51b81526020600482015260166024820152751a5b9d985b1a59081d1c985b9cd858dd1a5bdb881a5960521b6044820152606401610828565b60058281548110610ce257610ce26128a7565b600091825260209091206004600590920201015460ff1615610d545760405162461bcd60e51b815260206004820152602560248201527f7472616e73616374696f6e2068617320616c7265616479206265656e2065786560448201526418dd5d195960da1b6064820152608401610828565b33600090815260086020908152604080832085845290915290205460ff1615610dbf5760405162461bcd60e51b815260206004820152601d60248201527f63616e6e6f7420617070726f7665207472616e736665722074776963650000006044820152606401610828565b3360009081526008602090815260408083208584529091529020805460ff191660011790556005805483908110610df857610df86128a7565b600091825260208220600360059092020101805491610e16836128d3565b9091555050604051339083907f3ff8d786c849ae9fcb3fab4ef7137b9b396df28e8f5c44262b7b4a0c766f96e090600090a360015460058381548110610e5e57610e5e6128a7565b90600052602060002090600502016003015410610a6957600160058381548110610e8a57610e8a6128a7565b906000526020600020906005020160040160006101000a81548160ff021916908315150217905550600060058381548110610ec757610ec76128a7565b6000918252602082206005918202016002015481546001600160a01b03909116935085908110610ef957610ef96128a7565b9060005260206000209060050201600101549050816001600160a01b03166108fc829081150290604051600060405180830381858888f19350505050158015610f46573d6000803e3d6000fd5b50816001600160a01b0316847fda19024f6708ce28e75d9c0ec389fb05a8e5cc9dfe520f61239c10d51a11e59c83604051610f8391815260200190565b60405180910390a350505050565b60048181548110610fa157600080fd5b60009182526020909120600490910201805460018201546002830154600390930154919350919060ff1684565b60606004805480602002602001604051908101604052809291908181526020016000905b8282101561104b576000848152602090819020604080516080810182526004860290920180548352600180820154848601526002820154928401929092526003015460ff16151560608301529083529092019101610ff2565b50505050905090565b60606003805480602002602001604051908101604052809291908181526020016000905b8282101561104b5760008481526020908190206040805160808101825260048602909201805483526001808201546001600160a01b0316848601526002820154928401929092526003015460ff16151560608301529083529092019101611078565b3360008181526006602052604090205460ff166111095760405162461bcd60e51b815260040161082890612879565b6003828154811061111c5761111c6128a7565b600091825260209091206003600490920201015460ff161561118a5760405162461bcd60e51b815260206004820152602160248201527f52656d6f76616c2068617320616c7265616479206265656e20657865637574656044820152601960fa1b6064820152608401610828565b336000908152600a6020908152604080832085845290915290205460ff16156111f55760405162461bcd60e51b815260206004820152601c60248201527f43616e6e6f7420617070726f76652072656d6f76616c207477696365000000006044820152606401610828565b600180546000549091611207916128ec565b10156112255760405162461bcd60e51b8152600401610828906128ff565b336000908152600a602090815260408083208584529091529020805460ff19166001179055600380548390811061125e5761125e6128a7565b60009182526020822060026004909202010180549161127c836128d3565b919050555060015460038381548110611297576112976128a7565b90600052602060002090600402016002015410610a69576001600383815481106112c3576112c36128a7565b906000526020600020906004020160030160006101000a81548160ff02191690831515021790555060006006600060038581548110611304576113046128a7565b60009182526020808320600492909202909101600101546001600160a01b031683528201929092526040018120805460ff1916921515929092179091556003805484908110611355576113556128a7565b600091825260208220600160049092020101546001600160a01b0316915080805b6000548110156113d557836001600160a01b03166000828154811061139d5761139d6128a7565b6000918252602090912001546001600160a01b0316036113c357809250600191506113d5565b806113cd816128d3565b915050611376565b50806114185760405162461bcd60e51b8152602060048201526012602482015271105c1c1c9bdd995c881b9bdd08199bdd5b9960721b6044820152606401610828565b60008054611428906001906128ec565b81548110611438576114386128a7565b600091825260208220015481546001600160a01b03909116919084908110611462576114626128a7565b6000918252602082200180546001600160a01b0319166001600160a01b03939093169290921790915580548061149a5761149a61294f565b600082815260209020810160001990810180546001600160a01b031916905501905560038054869081106114d0576114d06128a7565b600091825260208220600160049092020101546040516001600160a01b039091169187917f2d2f043cb8f93c6464e5ce5b93e72c2863eeb044241ea316d2a5a9af932071219190a35050505050565b60606002805480602002602001604051908101604052809291908181526020016000908282101561104b5760008481526020908190206040805160808101825260048602909201805483526001808201546001600160a01b0316848601526002820154928401929092526003015460ff16151560608301529083529092019101611078565b3360008181526006602052604090205460ff166115d35760405162461bcd60e51b815260040161082890612879565b478311156116165760405162461bcd60e51b815260206004820152601060248201526f6e6f7420656e6f7567682066756e647360801b6044820152606401610828565b6040805160a08101825260058054808352602083018781526001600160a01b0387811695850186815260006060870181815260808801828152600180880189559288905297517f036b6384b5eca791c62761152d0c79bb0604c104a5fb6f4eb0703f3154bb3db09688029687015593517f036b6384b5eca791c62761152d0c79bb0604c104a5fb6f4eb0703f3154bb3db186015590517f036b6384b5eca791c62761152d0c79bb0604c104a5fb6f4eb0703f3154bb3db2850180546001600160a01b031916919093161790915590517f036b6384b5eca791c62761152d0c79bb0604c104a5fb6f4eb0703f3154bb3db383015592517f036b6384b5eca791c62761152d0c79bb0604c104a5fb6f4eb0703f3154bb3db4909101805460ff19169115159190911790555461174991906128ec565b6040518581527f34c1492f2b30aac2446b0b2de2e32501ff4742f7196db5ed9e0ddd6b7d7b25cf9060200160405180910390a3505050565b3360008181526006602052604090205460ff166117b05760405162461bcd60e51b815260040161082890612879565b600482815481106117c3576117c36128a7565b600091825260209091206003600490920201015460ff16156118275760405162461bcd60e51b815260206004820181905260248201527f51756f72756d2068617320616c7265616479206265656e2065786563757465646044820152606401610828565b33600090815260076020908152604080832085845290915290205460ff1615156001146118bc5760405162461bcd60e51b815260206004820152603e60248201527f43616e6e6f742072656d6f76652071756f72756d20617070726f76616c20747760448201527f696365206f7220776974686f757420617070726f76696e6720666972737400006064820152608401610828565b3360009081526007602090815260408083208584529091529020805460ff1916905560048054839081106118f2576118f26128a7565b60009182526020822060026004909202010180549161191083612965565b919050555060048281548110611928576119286128a7565b6000918252602082206001600490920201015460405190917fc90af14a5c02f1ef30ecfc5ad865d5082d232c952ec8b5a11a5d8e60ead51ed391a25050565b60606005805480602002602001604051908101604052809291908181526020016000905b8282101561104b5760008481526020908190206040805160a08101825260058602909201805483526001808201548486015260028201546001600160a01b031692840192909252600381015460608401526004015460ff1615156080830152908352909201910161198b565b611a346040518060a00160405280600081526020016000815260200160006001600160a01b03168152602001600081526020016000151581525090565b6005548210611a7b5760405162461bcd60e51b8152602060048201526013602482015272496e646578206f7574206f6620626f756e647360681b6044820152606401610828565b60058281548110611a8e57611a8e6128a7565b60009182526020918290206040805160a08101825260059093029091018054835260018101549383019390935260028301546001600160a01b0316908201526003820154606082015260049091015460ff161515608082015292915050565b3360008181526006602052604090205460ff16611b1c5760405162461bcd60e51b815260040161082890612879565b336000908152600a6020908152604080832085845290915290205460ff161515600114611b975760405162461bcd60e51b8152602060048201526024808201527f43616e6e6f742072656d6f76652072656d6f76616c20617070726f76616c20746044820152637769636560e01b6064820152608401610828565b336000908152600a602090815260408083208584529091529020805460ff191690556003805483908110611bcd57611bcd6128a7565b600091825260208220600260049092020101805491611beb83612965565b9091555050604051339083907f052fa9615ee9dc576dc59f7f08f536c09d5056dbaf27ccc7dfbe293a07f4f32c90600090a35050565b60058181548110611c3157600080fd5b60009182526020909120600590910201805460018201546002830154600384015460049094015492945090926001600160a01b039091169160ff1685565b60606000805480602002602001604051908101604052809291908181526020018280548015611cc757602002820191906000526020600020905b81546001600160a01b03168152600190910190602001808311611ca9575b5050505050905090565b3360008181526006602052604090205460ff16611d005760405162461bcd60e51b815260040161082890612879565b6001600160a01b038216600090815260066020526040902054829060ff16611d3a5760405162461bcd60e51b815260040161082890612879565b600180546000549091611d4c916128ec565b1015611d6a5760405162461bcd60e51b8152600401610828906128ff565b6001600160a01b03831660009081526006602052604090205460ff161515600114611dd75760405162461bcd60e51b815260206004820152601760248201527f41646472657373206973206e6f7420616e206f776e65720000000000000000006044820152606401610828565b6001600160a01b0383166000908152600b602052604090205460ff1615611e545760405162461bcd60e51b815260206004820152602b60248201527f4f776e65722068617320616c7265616479206265656e2070726f706f7365642060448201526a199bdc881c995b5bdd985b60aa1b6064820152608401610828565b6001600160a01b038381166000818152600b602090815260408083208054600160ff1991821681179092558251608081018452600380548083529582018881529482018781526060830188815287860183559782905291517fc2575a0e9e593c00f959f8c92f12db2869c3395a3b0502d05e2516446f71f85b60049097029687015593517fc2575a0e9e593c00f959f8c92f12db2869c3395a3b0502d05e2516446f71f85c860180546001600160a01b031916919099161790975595517fc2575a0e9e593c00f959f8c92f12db2869c3395a3b0502d05e2516446f71f85d84015592517fc2575a0e9e593c00f959f8c92f12db2869c3395a3b0502d05e2516446f71f85e90920180549095169115159190911790935591549091611f77916128ec565b6040517f0a96f78d450d245906104f049137ecd5ded44888d283fafca5cd8529f182180f90600090a3505050565b3360008181526006602052604090205460ff16611fd45760405162461bcd60e51b815260040161082890612879565b60058281548110611fe757611fe76128a7565b600091825260209091206004600590920201015460ff16156120555760405162461bcd60e51b815260206004820152602160248201527f7472616e73616374696f6e2068617320616c7265616479206265656e2073656e6044820152601d60fa1b6064820152608401610828565b33600090815260086020908152604080832085845290915290205460ff1615156001146120ec576040805162461bcd60e51b81526020600482015260248101919091527f416c7265616479207265766f6b656420617070726f76616c206f72206e65766560448201527f72206761766520417070726f76616c20666f722074686973207472616e7366656064820152608401610828565b3360009081526008602090815260408083208584529091529020805460ff191690556005805483908110612122576121226128a7565b60009182526020822060036005909202010180549161214083612965565b9091555050604051339083907f4cd471041f6b9ff47536a54a3d3ab62d0fa9dd5e36c0418b294b1673acb3188190600090a35050565b600281815481106107c357600080fd5b6000805b6000548110156121e257336001600160a01b0316600082815481106121b1576121b16128a7565b6000918252602090912001546001600160a01b0316036121d057600191505b806121da816128d3565b91505061218a565b5060018115151461222a5760405162461bcd60e51b81526020600482015260126024820152711bdb9b1e481bdddb995c88185b1b1bddd95960721b6044820152606401610828565b6000548211156122975760405162461bcd60e51b815260206004820152603260248201527f71756f72756d2063616e6e6f742062652067726561746572207468616e20746860448201527165206e756d626572206f66206f776e65727360701b6064820152608401610828565b60028210156122e85760405162461bcd60e51b815260206004820152601d60248201527f71756f72756d206d7573742062652067726561746572207468616e20320000006044820152606401610828565b60408051608081018252600480548083526020830186815260008486018181526060860182815260018501865585835295517f8a35acfbc15ff81a39ae7d344fd709f28e8600b4aa8c65c6b64bfe7fe36bd19b949095029384019490945590517f8a35acfbc15ff81a39ae7d344fd709f28e8600b4aa8c65c6b64bfe7fe36bd19c83015591517f8a35acfbc15ff81a39ae7d344fd709f28e8600b4aa8c65c6b64bfe7fe36bd19d82015591517f8a35acfbc15ff81a39ae7d344fd709f28e8600b4aa8c65c6b64bfe7fe36bd19e909201805460ff191692151592909217909155905183917fc90af14a5c02f1ef30ecfc5ad865d5082d232c952ec8b5a11a5d8e60ead51ed391a25050565b3360008181526006602052604090205460ff166124225760405162461bcd60e51b815260040161082890612879565b6001600160a01b03821660009081526006602052604090205460ff161561248b5760405162461bcd60e51b815260206004820152601b60248201527f4164647265737320697320616c726561647920616e206f776e657200000000006044820152606401610828565b60408051608081018252600280548083526001600160a01b038681166020850181815260008688018181526060880182815260018701885596825296517f405787fa12a823e0f2b7631cc41b3ba8828b3321ca811111fa75cd3aa3bb5ace60049096029586015590517f405787fa12a823e0f2b7631cc41b3ba8828b3321ca811111fa75cd3aa3bb5acf850180546001600160a01b031916919094161790925593517f405787fa12a823e0f2b7631cc41b3ba8828b3321ca811111fa75cd3aa3bb5ad083015591517f405787fa12a823e0f2b7631cc41b3ba8828b3321ca811111fa75cd3aa3bb5ad1909101805460ff1916911515919091179055915190917f2c08018e25157a5cf43d55375e80465e0b253285a21004306a1a60ded038b21d91a25050565b6000602082840312156125c357600080fd5b5035919050565b6001600160a01b03811681146125df57600080fd5b50565b6000602082840312156125f457600080fd5b81356125ff816125ca565b9392505050565b6000806040838503121561261957600080fd5b8235612624816125ca565b946020939093013593505050565b602080825282518282018190526000919060409081850190868401855b8281101561268b57815180518552868101518786015285810151868601526060908101511515908501526080909301929085019060010161264f565b5091979650505050505050565b6020808252825182820181905260009190848201906040850190845b81811015612703576126f0838551805182526020808201516001600160a01b031690830152604080820151908301526060908101511515910152565b92840192608092909201916001016126b4565b50909695505050505050565b6020808252825182820181905260009190848201906040850190845b8181101561270357612767838551805182526020808201516001600160a01b031690830152604080820151908301526060908101511515910152565b928401926080929092019160010161272b565b6000806040838503121561278d57600080fd5b82359150602083013561279f816125ca565b809150509250929050565b80518252602080820151908301526040808201516001600160a01b031690830152606080820151908301526080908101511515910152565b6020808252825182820181905260009190848201906040850190845b81811015612703576128118385516127aa565b9284019260a092909201916001016127fe565b60a0810161283282846127aa565b92915050565b6020808252825182820181905260009190848201906040850190845b818110156127035783516001600160a01b031683529284019291840191600101612854565b6020808252601490820152731bdddb995c88191bd95cc81b9bdd08195e1a5cdd60621b604082015260600190565b634e487b7160e01b600052603260045260246000fd5b634e487b7160e01b600052601160045260246000fd5b6000600182016128e5576128e56128bd565b5060010190565b81810381811115612832576128326128bd565b60208082526030908201527f43616e6e6f742072656d6f766520746865206f776e657220696620746865207160408201526f1d5bdc9d5b481a5cc81b9bdd081b595d60821b606082015260800190565b634e487b7160e01b600052603160045260246000fd5b600081612974576129746128bd565b50600019019056fea26469706673582212207ea2359a6056fa3c570fbc9ae813d969ba53ca41e82c6def08fda5fb6278dbbb64736f6c63430008150033",
    "linkReferences": {}
  },
  "methodIdentifiers": {
    "approvals(address,uint256)": "ffabc673",
    "approveTransaction(uint256)": "242232d1",
    "confirmOwnerRemoval(uint256)": "634a8591",
    "getBalance()": "12065fe0",
    "getOwnerProposals()": "64fe7256",
    "getOwnerRemovalProposals()": "604abc63",
    "getOwners()": "a0e67e2b",
    "getQuorum()": "c26c12eb",
    "getQuorumChangeProposals()": "58f5c9c3",
    "getTransactionByIndex(uint256)": "869152e7",
    "getTransactions()": "83920e90",
    "getTransactionsCount()": "578cb8f9",
    "isOwner(address)": "2f54bf6e",
    "newOwnerApproval(uint256)": "1a2df282",
    "newOwnerProposal(address)": "fb16664f",
    "ownerApprovals(address,uint256)": "e3bec20e",
    "ownerProposals(uint256)": "d39258ca",
    "ownerRemovalApprovals(address,uint256)": "b2f09bca",
    "ownerRemovalProposalList(address)": "648e2f45",
    "ownerRemovalProposals(uint256)": "0bb1e8c0",
    "owners(uint256)": "025e7c27",
    "proposeOwnerRemoval(address)": "b0ce48d9",
    "proposeQuorumChange(uint256)": "f6ba5d0e",
    "proposeTransaction(uint256,address)": "66e3b0d8",
    "quorum()": "1703a018",
    "quorumApprovals(address,uint256)": "3f84203d",
    "quorumChangeApproval(uint256)": "20af4e3e",
    "quorumChangeProposals(uint256)": "58664166",
    "removeOwnerRemovalApproval(uint256)": "86be11e4",
    "removeQuorumChangeApproval(uint256)": "7045ce8e",
    "revokeApproval(uint256)": "b1e130fc",
    "transactions(uint256)": "9ace38c2"
  },
  "id": 32
}