{
  "abi": [
    {
      "inputs": [],
      "stateMutability": "nonpayable",
      "type": "constructor"
    },
    {
      "anonymous": false,
      "inputs": [
        {
          "indexed": true,
          "internalType": "address",
          "name": "owner",
          "type": "address"
        },
        {
          "indexed": true,
          "internalType": "address",
          "name": "approved",
          "type": "address"
        },
        {
          "indexed": true,
          "internalType": "uint256",
          "name": "tokenId",
          "type": "uint256"
        }
      ],
      "name": "Approval",
      "type": "event"
    },
    {
      "anonymous": false,
      "inputs": [
        {
          "indexed": true,
          "internalType": "address",
          "name": "owner",
          "type": "address"
        },
        {
          "indexed": true,
          "internalType": "address",
          "name": "operator",
          "type": "address"
        },
        {
          "indexed": false,
          "internalType": "bool",
          "name": "approved",
          "type": "bool"
        }
      ],
      "name": "ApprovalForAll",
      "type": "event"
    },
    {
      "anonymous": false,
      "inputs": [
        {
          "indexed": true,
          "internalType": "address",
          "name": "previousOwner",
          "type": "address"
        },
        {
          "indexed": true,
          "internalType": "address",
          "name": "newOwner",
          "type": "address"
        }
      ],
      "name": "OwnershipTransferred",
      "type": "event"
    },
    {
      "anonymous": false,
      "inputs": [
        {
          "indexed": true,
          "internalType": "address",
          "name": "from",
          "type": "address"
        },
        {
          "indexed": true,
          "internalType": "address",
          "name": "to",
          "type": "address"
        },
        {
          "indexed": true,
          "internalType": "uint256",
          "name": "tokenId",
          "type": "uint256"
        }
      ],
      "name": "Transfer",
      "type": "event"
    },
    {
      "inputs": [
        {
          "internalType": "address",
          "name": "_newUser",
          "type": "address"
        }
      ],
      "name": "addUser",
      "outputs": [],
      "stateMutability": "nonpayable",
      "type": "function"
    },
    {
      "inputs": [
        {
          "internalType": "address",
          "name": "to",
          "type": "address"
        },
        {
          "internalType": "uint256",
          "name": "tokenId",
          "type": "uint256"
        }
      ],
      "name": "approve",
      "outputs": [],
      "stateMutability": "nonpayable",
      "type": "function"
    },
    {
      "inputs": [
        {
          "internalType": "address",
          "name": "owner",
          "type": "address"
        }
      ],
      "name": "balanceOf",
      "outputs": [
        {
          "internalType": "uint256",
          "name": "",
          "type": "uint256"
        }
      ],
      "stateMutability": "view",
      "type": "function"
    },
    {
      "inputs": [
        {
          "internalType": "uint256",
          "name": "tokenId",
          "type": "uint256"
        }
      ],
      "name": "getApproved",
      "outputs": [
        {
          "internalType": "address",
          "name": "",
          "type": "address"
        }
      ],
      "stateMutability": "view",
      "type": "function"
    },
    {
      "inputs": [
        {
          "internalType": "address",
          "name": "_user",
          "type": "address"
        }
      ],
      "name": "getBalanceOfAddy",
      "outputs": [
        {
          "internalType": "uint256",
          "name": "",
          "type": "uint256"
        }
      ],
      "stateMutability": "view",
      "type": "function"
    },
    {
      "inputs": [
        {
          "internalType": "uint256",
          "name": "tokenId",
          "type": "uint256"
        }
      ],
      "name": "getOwnerOfToken",
      "outputs": [
        {
          "internalType": "address",
          "name": "",
          "type": "address"
        }
      ],
      "stateMutability": "view",
      "type": "function"
    },
    {
      "inputs": [
        {
          "internalType": "address",
          "name": "owner",
          "type": "address"
        },
        {
          "internalType": "address",
          "name": "operator",
          "type": "address"
        }
      ],
      "name": "isApprovedForAll",
      "outputs": [
        {
          "internalType": "bool",
          "name": "",
          "type": "bool"
        }
      ],
      "stateMutability": "view",
      "type": "function"
    },
    {
      "inputs": [],
      "name": "name",
      "outputs": [
        {
          "internalType": "string",
          "name": "",
          "type": "string"
        }
      ],
      "stateMutability": "view",
      "type": "function"
    },
    {
      "inputs": [],
      "name": "owner",
      "outputs": [
        {
          "internalType": "address",
          "name": "",
          "type": "address"
        }
      ],
      "stateMutability": "view",
      "type": "function"
    },
    {
      "inputs": [
        {
          "internalType": "uint256",
          "name": "tokenId",
          "type": "uint256"
        }
      ],
      "name": "ownerOf",
      "outputs": [
        {
          "internalType": "address",
          "name": "",
          "type": "address"
        }
      ],
      "stateMutability": "view",
      "type": "function"
    },
    {
      "inputs": [
        {
          "internalType": "uint256",
          "name": "",
          "type": "uint256"
        }
      ],
      "name": "publicUsers",
      "outputs": [
        {
          "internalType": "address",
          "name": "",
          "type": "address"
        }
      ],
      "stateMutability": "view",
      "type": "function"
    },
    {
      "inputs": [],
      "name": "renounceOwnership",
      "outputs": [],
      "stateMutability": "nonpayable",
      "type": "function"
    },
    {
      "inputs": [
        {
          "internalType": "address",
          "name": "to",
          "type": "address"
        }
      ],
      "name": "safeMint",
      "outputs": [],
      "stateMutability": "nonpayable",
      "type": "function"
    },
    {
      "inputs": [
        {
          "internalType": "address",
          "name": "from",
          "type": "address"
        },
        {
          "internalType": "address",
          "name": "to",
          "type": "address"
        },
        {
          "internalType": "uint256",
          "name": "tokenId",
          "type": "uint256"
        }
      ],
      "name": "safeTransferFrom",
      "outputs": [],
      "stateMutability": "nonpayable",
      "type": "function"
    },
    {
      "inputs": [
        {
          "internalType": "address",
          "name": "from",
          "type": "address"
        },
        {
          "internalType": "address",
          "name": "to",
          "type": "address"
        },
        {
          "internalType": "uint256",
          "name": "tokenId",
          "type": "uint256"
        },
        {
          "internalType": "bytes",
          "name": "data",
          "type": "bytes"
        }
      ],
      "name": "safeTransferFrom",
      "outputs": [],
      "stateMutability": "nonpayable",
      "type": "function"
    },
    {
      "inputs": [
        {
          "internalType": "address",
          "name": "operator",
          "type": "address"
        },
        {
          "internalType": "bool",
          "name": "approved",
          "type": "bool"
        }
      ],
      "name": "setApprovalForAll",
      "outputs": [],
      "stateMutability": "nonpayable",
      "type": "function"
    },
    {
      "inputs": [
        {
          "internalType": "bytes4",
          "name": "interfaceId",
          "type": "bytes4"
        }
      ],
      "name": "supportsInterface",
      "outputs": [
        {
          "internalType": "bool",
          "name": "",
          "type": "bool"
        }
      ],
      "stateMutability": "view",
      "type": "function"
    },
    {
      "inputs": [],
      "name": "symbol",
      "outputs": [
        {
          "internalType": "string",
          "name": "",
          "type": "string"
        }
      ],
      "stateMutability": "view",
      "type": "function"
    },
    {
      "inputs": [
        {
          "internalType": "uint256",
          "name": "tokenId",
          "type": "uint256"
        }
      ],
      "name": "tokenURI",
      "outputs": [
        {
          "internalType": "string",
          "name": "",
          "type": "string"
        }
      ],
      "stateMutability": "view",
      "type": "function"
    },
    {
      "inputs": [
        {
          "internalType": "address",
          "name": "",
          "type": "address"
        },
        {
          "internalType": "uint256",
          "name": "",
          "type": "uint256"
        }
      ],
      "name": "tokens",
      "outputs": [
        {
          "internalType": "uint256",
          "name": "",
          "type": "uint256"
        }
      ],
      "stateMutability": "view",
      "type": "function"
    },
    {
      "inputs": [
        {
          "internalType": "address",
          "name": "from",
          "type": "address"
        },
        {
          "internalType": "address",
          "name": "to",
          "type": "address"
        },
        {
          "internalType": "uint256",
          "name": "tokenId",
          "type": "uint256"
        }
      ],
      "name": "transferFrom",
      "outputs": [],
      "stateMutability": "nonpayable",
      "type": "function"
    },
    {
      "inputs": [
        {
          "internalType": "address",
          "name": "newOwner",
          "type": "address"
        }
      ],
      "name": "transferOwnership",
      "outputs": [],
      "stateMutability": "nonpayable",
      "type": "function"
    },
    {
      "inputs": [],
      "name": "triggerAirDrop",
      "outputs": [],
      "stateMutability": "nonpayable",
      "type": "function"
    }
  ],
  "bytecode": {
    "object": "0x60806040523480156200001157600080fd5b506040518060400160405280600781526020016626bcaa37b5b2b760c91b815250604051806040016040528060038152602001624d544b60e81b81525081600090816200005f91906200018c565b5060016200006e82826200018c565b5050506200008b620000856200009160201b60201c565b62000095565b62000258565b3390565b600680546001600160a01b038381166001600160a01b0319831681179093556040519116919082907f8be0079c531659141344cd1fd0a4f28419497f9722a3daafe3b4186f6b6457e090600090a35050565b634e487b7160e01b600052604160045260246000fd5b600181811c908216806200011257607f821691505b6020821081036200013357634e487b7160e01b600052602260045260246000fd5b50919050565b601f8211156200018757600081815260208120601f850160051c81016020861015620001625750805b601f850160051c820191505b8181101562000183578281556001016200016e565b5050505b505050565b81516001600160401b03811115620001a857620001a8620000e7565b620001c081620001b98454620000fd565b8462000139565b602080601f831160018114620001f85760008415620001df5750858301515b600019600386901b1c1916600185901b17855562000183565b600085815260208120601f198616915b82811015620002295788860151825594840194600190910190840162000208565b5085821015620002485787850151600019600388901b60f8161c191681555b5050505050600190811b01905550565b61175a80620002686000396000f3fe608060405234801561001057600080fd5b506004361061014d5760003560e01c806370a08231116100c35780639839d5d61161007c5780639839d5d6146102b1578063a22cb465146102c4578063b88d4fde146102d7578063c87b56dd146102ea578063e985e9c5146102fd578063f2fde38b1461033957600080fd5b806370a0823114610262578063715018a6146102755780637f1dd80b1461027d57806383b653ac146102905780638da5cb5b1461029857806395d89b41146102a957600080fd5b806323b872dd1161011557806323b872dd146101e257806340d097c3146101f5578063421b2d8b1461020857806342842e0e1461021b5780634abf825d1461022e5780636352211e1461024f57600080fd5b806301ffc9a71461015257806306fdde031461017a578063081812fc1461018f578063095ea7b3146101ba5780630b1948d9146101cf575b600080fd5b6101656101603660046112a9565b61034c565b60405190151581526020015b60405180910390f35b61018261039e565b6040516101719190611316565b6101a261019d366004611329565b610430565b6040516001600160a01b039091168152602001610171565b6101cd6101c836600461135e565b610457565b005b6101a26101dd366004611329565b610571565b6101cd6101f0366004611388565b61059b565b6101cd6102033660046113c4565b6105cc565b6101cd6102163660046113c4565b610625565b6101cd610229366004611388565b61067f565b61024161023c36600461135e565b61069a565b604051908152602001610171565b6101a261025d366004611329565b6106cb565b6102416102703660046113c4565b61072b565b6101cd6107b1565b6101a261028b366004611329565b6107c5565b6101cd6107d0565b6006546001600160a01b03166101a2565b6101826107e0565b6102416102bf3660046113c4565b6107ef565b6101cd6102d23660046113df565b6107fa565b6101cd6102e5366004611431565b610809565b6101826102f8366004611329565b610841565b61016561030b36600461150d565b6001600160a01b03918216600090815260056020908152604080832093909416825291909152205460ff1690565b6101cd6103473660046113c4565b6108b5565b60006001600160e01b031982166380ac58cd60e01b148061037d57506001600160e01b03198216635b5e139f60e01b145b8061039857506301ffc9a760e01b6001600160e01b03198316145b92915050565b6060600080546103ad90611540565b80601f01602080910402602001604051908101604052809291908181526020018280546103d990611540565b80156104265780601f106103fb57610100808354040283529160200191610426565b820191906000526020600020905b81548152906001019060200180831161040957829003601f168201915b5050505050905090565b600061043b8261092e565b506000908152600460205260409020546001600160a01b031690565b6000610462826106cb565b9050806001600160a01b0316836001600160a01b0316036104d45760405162461bcd60e51b815260206004820152602160248201527f4552433732313a20617070726f76616c20746f2063757272656e74206f776e656044820152603960f91b60648201526084015b60405180910390fd5b336001600160a01b03821614806104f057506104f0813361030b565b6105625760405162461bcd60e51b815260206004820152603d60248201527f4552433732313a20617070726f76652063616c6c6572206973206e6f7420746f60448201527f6b656e206f776e6572206f7220617070726f76656420666f7220616c6c00000060648201526084016104cb565b61056c838361098d565b505050565b6008818154811061058157600080fd5b6000918252602090912001546001600160a01b0316905081565b6105a533826109fb565b6105c15760405162461bcd60e51b81526004016104cb9061157a565b61056c838383610a7a565b6105d4610bde565b60006105df60075490565b90506105ef600780546001019055565b6105f98282610c38565b6001600160a01b0390911660009081526009602090815260408220805460018101825590835291200155565b61062d610bde565b600880546001810182556000919091527ff3f7a9fe364faab93b216da50a3214154f22a0a2b415b23a84c8169e8b636ee30180546001600160a01b0319166001600160a01b0392909216919091179055565b61056c83838360405180602001604052806000815250610809565b600960205281600052604060002081815481106106b657600080fd5b90600052602060002001600091509150505481565b6000818152600260205260408120546001600160a01b0316806103985760405162461bcd60e51b8152602060048201526018602482015277115490cdcc8c4e881a5b9d985b1a59081d1bdad95b88125160421b60448201526064016104cb565b60006001600160a01b0382166107955760405162461bcd60e51b815260206004820152602960248201527f4552433732313a2061646472657373207a65726f206973206e6f7420612076616044820152683634b21037bbb732b960b91b60648201526084016104cb565b506001600160a01b031660009081526003602052604090205490565b6107b9610bde565b6107c36000610c52565b565b6000610398826106cb565b6107d8610bde565b6107c3610ca4565b6060600180546103ad90611540565b60006103988261072b565b610805338383610d68565b5050565b61081333836109fb565b61082f5760405162461bcd60e51b81526004016104cb9061157a565b61083b84848484610e36565b50505050565b606061084c8261092e565b600061086360408051602081019091526000815290565b9050600081511161088357604051806020016040528060008152506108ae565b8061088d84610e69565b60405160200161089e9291906115c7565b6040516020818303038152906040525b9392505050565b6108bd610bde565b6001600160a01b0381166109225760405162461bcd60e51b815260206004820152602660248201527f4f776e61626c653a206e6577206f776e657220697320746865207a65726f206160448201526564647265737360d01b60648201526084016104cb565b61092b81610c52565b50565b6000818152600260205260409020546001600160a01b031661092b5760405162461bcd60e51b8152602060048201526018602482015277115490cdcc8c4e881a5b9d985b1a59081d1bdad95b88125160421b60448201526064016104cb565b600081815260046020526040902080546001600160a01b0319166001600160a01b03841690811790915581906109c2826106cb565b6001600160a01b03167f8c5be1e5ebec7d5bd14f71427d1e84f3dd0314c0f7b2291e5b200ac8c7c3b92560405160405180910390a45050565b600080610a07836106cb565b9050806001600160a01b0316846001600160a01b03161480610a4e57506001600160a01b0380821660009081526005602090815260408083209388168352929052205460ff165b80610a725750836001600160a01b0316610a6784610430565b6001600160a01b0316145b949350505050565b826001600160a01b0316610a8d826106cb565b6001600160a01b031614610ab35760405162461bcd60e51b81526004016104cb906115f6565b6001600160a01b038216610b155760405162461bcd60e51b8152602060048201526024808201527f4552433732313a207472616e7366657220746f20746865207a65726f206164646044820152637265737360e01b60648201526084016104cb565b826001600160a01b0316610b28826106cb565b6001600160a01b031614610b4e5760405162461bcd60e51b81526004016104cb906115f6565b600081815260046020908152604080832080546001600160a01b03199081169091556001600160a01b0387811680865260038552838620805460001901905590871680865283862080546001019055868652600290945282852080549092168417909155905184937fddf252ad1be2c89b69c2b068fc378daa952ba7f163c4a11628f55a4df523b3ef91a4505050565b6006546001600160a01b031633146107c35760405162461bcd60e51b815260206004820181905260248201527f4f776e61626c653a2063616c6c6572206973206e6f7420746865206f776e657260448201526064016104cb565b610805828260405180602001604052806000815250610efc565b600680546001600160a01b038381166001600160a01b0319831681179093556040519116919082907f8be0079c531659141344cd1fd0a4f28419497f9722a3daafe3b4186f6b6457e090600090a35050565b610cac610bde565b60005b60085481101561092b576000610cc460075490565b9050610cf760088381548110610cdc57610cdc61163b565b6000918252602090912001546001600160a01b031682610c38565b6009600060088481548110610d0e57610d0e61163b565b60009182526020808320909101546001600160a01b031683528281019390935260409091018120805460018101825590825291902001819055610d55600780546001019055565b5080610d6081611651565b915050610caf565b816001600160a01b0316836001600160a01b031603610dc95760405162461bcd60e51b815260206004820152601960248201527f4552433732313a20617070726f766520746f2063616c6c65720000000000000060448201526064016104cb565b6001600160a01b03838116600081815260056020908152604080832094871680845294825291829020805460ff191686151590811790915591519182527f17307eab39ab6107e8899845ad3d59bd9653f200f220920489ca2b5937696c31910160405180910390a3505050565b610e41848484610a7a565b610e4d84848484610f2f565b61083b5760405162461bcd60e51b81526004016104cb90611678565b60606000610e7683611030565b600101905060008167ffffffffffffffff811115610e9657610e9661141b565b6040519080825280601f01601f191660200182016040528015610ec0576020820181803683370190505b5090508181016020015b600019016f181899199a1a9b1b9c1cb0b131b232b360811b600a86061a8153600a8504945084610eca57509392505050565b610f068383611108565b610f136000848484610f2f565b61056c5760405162461bcd60e51b81526004016104cb90611678565b60006001600160a01b0384163b1561102557604051630a85bd0160e11b81526001600160a01b0385169063150b7a0290610f739033908990889088906004016116ca565b6020604051808303816000875af1925050508015610fae575060408051601f3d908101601f19168201909252610fab91810190611707565b60015b61100b573d808015610fdc576040519150601f19603f3d011682016040523d82523d6000602084013e610fe1565b606091505b5080516000036110035760405162461bcd60e51b81526004016104cb90611678565b805181602001fd5b6001600160e01b031916630a85bd0160e11b149050610a72565b506001949350505050565b60008072184f03e93ff9f4daa797ed6e38ed64bf6a1f0160401b831061106f5772184f03e93ff9f4daa797ed6e38ed64bf6a1f0160401b830492506040015b6d04ee2d6d415b85acef8100000000831061109b576d04ee2d6d415b85acef8100000000830492506020015b662386f26fc1000083106110b957662386f26fc10000830492506010015b6305f5e10083106110d1576305f5e100830492506008015b61271083106110e557612710830492506004015b606483106110f7576064830492506002015b600a83106103985760010192915050565b6001600160a01b03821661115e5760405162461bcd60e51b815260206004820181905260248201527f4552433732313a206d696e7420746f20746865207a65726f206164647265737360448201526064016104cb565b6000818152600260205260409020546001600160a01b0316156111c35760405162461bcd60e51b815260206004820152601c60248201527f4552433732313a20746f6b656e20616c7265616479206d696e7465640000000060448201526064016104cb565b6000818152600260205260409020546001600160a01b0316156112285760405162461bcd60e51b815260206004820152601c60248201527f4552433732313a20746f6b656e20616c7265616479206d696e7465640000000060448201526064016104cb565b6001600160a01b038216600081815260036020908152604080832080546001019055848352600290915280822080546001600160a01b0319168417905551839291907fddf252ad1be2c89b69c2b068fc378daa952ba7f163c4a11628f55a4df523b3ef908290a45050565b6001600160e01b03198116811461092b57600080fd5b6000602082840312156112bb57600080fd5b81356108ae81611293565b60005b838110156112e15781810151838201526020016112c9565b50506000910152565b600081518084526113028160208601602086016112c6565b601f01601f19169290920160200192915050565b6020815260006108ae60208301846112ea565b60006020828403121561133b57600080fd5b5035919050565b80356001600160a01b038116811461135957600080fd5b919050565b6000806040838503121561137157600080fd5b61137a83611342565b946020939093013593505050565b60008060006060848603121561139d57600080fd5b6113a684611342565b92506113b460208501611342565b9150604084013590509250925092565b6000602082840312156113d657600080fd5b6108ae82611342565b600080604083850312156113f257600080fd5b6113fb83611342565b91506020830135801515811461141057600080fd5b809150509250929050565b634e487b7160e01b600052604160045260246000fd5b6000806000806080858703121561144757600080fd5b61145085611342565b935061145e60208601611342565b925060408501359150606085013567ffffffffffffffff8082111561148257600080fd5b818701915087601f83011261149657600080fd5b8135818111156114a8576114a861141b565b604051601f8201601f19908116603f011681019083821181831017156114d0576114d061141b565b816040528281528a60208487010111156114e957600080fd5b82602086016020830137600060208483010152809550505050505092959194509250565b6000806040838503121561152057600080fd5b61152983611342565b915061153760208401611342565b90509250929050565b600181811c9082168061155457607f821691505b60208210810361157457634e487b7160e01b600052602260045260246000fd5b50919050565b6020808252602d908201527f4552433732313a2063616c6c6572206973206e6f7420746f6b656e206f776e6560408201526c1c881bdc88185c1c1c9bdd9959609a1b606082015260800190565b600083516115d98184602088016112c6565b8351908301906115ed8183602088016112c6565b01949350505050565b60208082526025908201527f4552433732313a207472616e736665722066726f6d20696e636f72726563742060408201526437bbb732b960d91b606082015260800190565b634e487b7160e01b600052603260045260246000fd5b60006001820161167157634e487b7160e01b600052601160045260246000fd5b5060010190565b60208082526032908201527f4552433732313a207472616e7366657220746f206e6f6e20455243373231526560408201527131b2b4bb32b91034b6b83632b6b2b73a32b960711b606082015260800190565b6001600160a01b03858116825284166020820152604081018390526080606082018190526000906116fd908301846112ea565b9695505050505050565b60006020828403121561171957600080fd5b81516108ae8161129356fea26469706673582212207c1211bb22ed5b900f8e4c4d59b018776726fe3327c210c83ff5efd41a02bf9864736f6c63430008150033",
    "linkReferences": {}
  },
  "methodIdentifiers": {
    "addUser(address)": "421b2d8b",
    "approve(address,uint256)": "095ea7b3",
    "balanceOf(address)": "70a08231",
    "getApproved(uint256)": "081812fc",
    "getBalanceOfAddy(address)": "9839d5d6",
    "getOwnerOfToken(uint256)": "7f1dd80b",
    "isApprovedForAll(address,address)": "e985e9c5",
    "name()": "06fdde03",
    "owner()": "8da5cb5b",
    "ownerOf(uint256)": "6352211e",
    "publicUsers(uint256)": "0b1948d9",
    "renounceOwnership()": "715018a6",
    "safeMint(address)": "40d097c3",
    "safeTransferFrom(address,address,uint256)": "42842e0e",
    "safeTransferFrom(address,address,uint256,bytes)": "b88d4fde",
    "setApprovalForAll(address,bool)": "a22cb465",
    "supportsInterface(bytes4)": "01ffc9a7",
    "symbol()": "95d89b41",
    "tokenURI(uint256)": "c87b56dd",
    "tokens(address,uint256)": "4abf825d",
    "transferFrom(address,address,uint256)": "23b872dd",
    "transferOwnership(address)": "f2fde38b",
    "triggerAirDrop()": "83b653ac"
  },
  "id": 41
}