{
  "abi": [
    {
      "inputs": [
        {
          "internalType": "address",
          "name": "BTCPricefeed",
          "type": "address"
        },
        {
          "internalType": "address",
          "name": "ETHPricefeed",
          "type": "address"
        },
        {
          "internalType": "address",
          "name": "LINKPricefeed",
          "type": "address"
        }
      ],
      "stateMutability": "nonpayable",
      "type": "constructor"
    },
    {
      "anonymous": false,
      "inputs": [
        {
          "indexed": true,
          "internalType": "address",
          "name": "account",
          "type": "address"
        },
        {
          "indexed": true,
          "internalType": "address",
          "name": "operator",
          "type": "address"
        },
        {
          "indexed": false,
          "internalType": "bool",
          "name": "approved",
          "type": "bool"
        }
      ],
      "name": "ApprovalForAll",
      "type": "event"
    },
    {
      "anonymous": false,
      "inputs": [
        {
          "indexed": true,
          "internalType": "address",
          "name": "previousOwner",
          "type": "address"
        },
        {
          "indexed": true,
          "internalType": "address",
          "name": "newOwner",
          "type": "address"
        }
      ],
      "name": "OwnershipTransferred",
      "type": "event"
    },
    {
      "anonymous": false,
      "inputs": [
        {
          "indexed": true,
          "internalType": "address",
          "name": "operator",
          "type": "address"
        },
        {
          "indexed": true,
          "internalType": "address",
          "name": "from",
          "type": "address"
        },
        {
          "indexed": true,
          "internalType": "address",
          "name": "to",
          "type": "address"
        },
        {
          "indexed": false,
          "internalType": "uint256[]",
          "name": "ids",
          "type": "uint256[]"
        },
        {
          "indexed": false,
          "internalType": "uint256[]",
          "name": "values",
          "type": "uint256[]"
        }
      ],
      "name": "TransferBatch",
      "type": "event"
    },
    {
      "anonymous": false,
      "inputs": [
        {
          "indexed": true,
          "internalType": "address",
          "name": "operator",
          "type": "address"
        },
        {
          "indexed": true,
          "internalType": "address",
          "name": "from",
          "type": "address"
        },
        {
          "indexed": true,
          "internalType": "address",
          "name": "to",
          "type": "address"
        },
        {
          "indexed": false,
          "internalType": "uint256",
          "name": "id",
          "type": "uint256"
        },
        {
          "indexed": false,
          "internalType": "uint256",
          "name": "value",
          "type": "uint256"
        }
      ],
      "name": "TransferSingle",
      "type": "event"
    },
    {
      "anonymous": false,
      "inputs": [
        {
          "indexed": false,
          "internalType": "string",
          "name": "value",
          "type": "string"
        },
        {
          "indexed": true,
          "internalType": "uint256",
          "name": "id",
          "type": "uint256"
        }
      ],
      "name": "URI",
      "type": "event"
    },
    {
      "inputs": [
        {
          "internalType": "address",
          "name": "account",
          "type": "address"
        },
        {
          "internalType": "uint256",
          "name": "id",
          "type": "uint256"
        }
      ],
      "name": "balanceOf",
      "outputs": [
        {
          "internalType": "uint256",
          "name": "",
          "type": "uint256"
        }
      ],
      "stateMutability": "view",
      "type": "function"
    },
    {
      "inputs": [
        {
          "internalType": "address[]",
          "name": "accounts",
          "type": "address[]"
        },
        {
          "internalType": "uint256[]",
          "name": "ids",
          "type": "uint256[]"
        }
      ],
      "name": "balanceOfBatch",
      "outputs": [
        {
          "internalType": "uint256[]",
          "name": "",
          "type": "uint256[]"
        }
      ],
      "stateMutability": "view",
      "type": "function"
    },
    {
      "inputs": [
        {
          "internalType": "enum DynamicAssetPricedNFT.TokenType",
          "name": "_tkr",
          "type": "uint8"
        }
      ],
      "name": "getLatestPrice",
      "outputs": [
        {
          "components": [
            {
              "internalType": "string",
              "name": "name",
              "type": "string"
            },
            {
              "internalType": "string",
              "name": "description",
              "type": "string"
            },
            {
              "internalType": "string",
              "name": "image",
              "type": "string"
            },
            {
              "internalType": "uint256",
              "name": "price",
              "type": "uint256"
            }
          ],
          "internalType": "struct DynamicAssetPricedNFT.Metadata",
          "name": "",
          "type": "tuple"
        }
      ],
      "stateMutability": "nonpayable",
      "type": "function"
    },
    {
      "inputs": [
        {
          "internalType": "address",
          "name": "",
          "type": "address"
        },
        {
          "internalType": "enum DynamicAssetPricedNFT.TokenType",
          "name": "",
          "type": "uint8"
        }
      ],
      "name": "hasMinted",
      "outputs": [
        {
          "internalType": "bool",
          "name": "",
          "type": "bool"
        }
      ],
      "stateMutability": "view",
      "type": "function"
    },
    {
      "inputs": [
        {
          "internalType": "address",
          "name": "account",
          "type": "address"
        },
        {
          "internalType": "address",
          "name": "operator",
          "type": "address"
        }
      ],
      "name": "isApprovedForAll",
      "outputs": [
        {
          "internalType": "bool",
          "name": "",
          "type": "bool"
        }
      ],
      "stateMutability": "view",
      "type": "function"
    },
    {
      "inputs": [],
      "name": "owner",
      "outputs": [
        {
          "internalType": "address",
          "name": "",
          "type": "address"
        }
      ],
      "stateMutability": "view",
      "type": "function"
    },
    {
      "inputs": [],
      "name": "renounceOwnership",
      "outputs": [],
      "stateMutability": "nonpayable",
      "type": "function"
    },
    {
      "inputs": [
        {
          "internalType": "address",
          "name": "from",
          "type": "address"
        },
        {
          "internalType": "address",
          "name": "to",
          "type": "address"
        },
        {
          "internalType": "uint256[]",
          "name": "ids",
          "type": "uint256[]"
        },
        {
          "internalType": "uint256[]",
          "name": "amounts",
          "type": "uint256[]"
        },
        {
          "internalType": "bytes",
          "name": "data",
          "type": "bytes"
        }
      ],
      "name": "safeBatchTransferFrom",
      "outputs": [],
      "stateMutability": "nonpayable",
      "type": "function"
    },
    {
      "inputs": [
        {
          "internalType": "address",
          "name": "from",
          "type": "address"
        },
        {
          "internalType": "address",
          "name": "to",
          "type": "address"
        },
        {
          "internalType": "uint256",
          "name": "id",
          "type": "uint256"
        },
        {
          "internalType": "uint256",
          "name": "amount",
          "type": "uint256"
        },
        {
          "internalType": "bytes",
          "name": "data",
          "type": "bytes"
        }
      ],
      "name": "safeTransferFrom",
      "outputs": [],
      "stateMutability": "nonpayable",
      "type": "function"
    },
    {
      "inputs": [
        {
          "internalType": "address",
          "name": "operator",
          "type": "address"
        },
        {
          "internalType": "bool",
          "name": "approved",
          "type": "bool"
        }
      ],
      "name": "setApprovalForAll",
      "outputs": [],
      "stateMutability": "nonpayable",
      "type": "function"
    },
    {
      "inputs": [
        {
          "internalType": "bytes4",
          "name": "interfaceId",
          "type": "bytes4"
        }
      ],
      "name": "supportsInterface",
      "outputs": [
        {
          "internalType": "bool",
          "name": "",
          "type": "bool"
        }
      ],
      "stateMutability": "view",
      "type": "function"
    },
    {
      "inputs": [
        {
          "internalType": "enum DynamicAssetPricedNFT.TokenType",
          "name": "",
          "type": "uint8"
        }
      ],
      "name": "tokenMetadata",
      "outputs": [
        {
          "internalType": "string",
          "name": "name",
          "type": "string"
        },
        {
          "internalType": "string",
          "name": "description",
          "type": "string"
        },
        {
          "internalType": "string",
          "name": "image",
          "type": "string"
        },
        {
          "internalType": "uint256",
          "name": "price",
          "type": "uint256"
        }
      ],
      "stateMutability": "view",
      "type": "function"
    },
    {
      "inputs": [
        {
          "internalType": "address",
          "name": "newOwner",
          "type": "address"
        }
      ],
      "name": "transferOwnership",
      "outputs": [],
      "stateMutability": "nonpayable",
      "type": "function"
    },
    {
      "inputs": [],
      "name": "updateMetadataHourly",
      "outputs": [],
      "stateMutability": "nonpayable",
      "type": "function"
    },
    {
      "inputs": [
        {
          "internalType": "uint256",
          "name": "",
          "type": "uint256"
        }
      ],
      "name": "uri",
      "outputs": [
        {
          "internalType": "string",
          "name": "",
          "type": "string"
        }
      ],
      "stateMutability": "view",
      "type": "function"
    }
  ],
  "bytecode": {
    "object": "0x60806040523480156200001157600080fd5b50604051620023693803806200236983398101604081905262000034916200011e565b6040805160208101909152600081526200004e816200009d565b506200005a33620000af565b600480546001600160a01b039485166001600160a01b031991821617909155600580549385169382169390931790925560068054919093169116179055620002d9565b6002620000ab82826200020d565b5050565b600380546001600160a01b038381166001600160a01b0319831681179093556040519116919082907f8be0079c531659141344cd1fd0a4f28419497f9722a3daafe3b4186f6b6457e090600090a35050565b80516001600160a01b03811681146200011957600080fd5b919050565b6000806000606084860312156200013457600080fd5b6200013f8462000101565b92506200014f6020850162000101565b91506200015f6040850162000101565b90509250925092565b634e487b7160e01b600052604160045260246000fd5b600181811c908216806200019357607f821691505b602082108103620001b457634e487b7160e01b600052602260045260246000fd5b50919050565b601f8211156200020857600081815260208120601f850160051c81016020861015620001e35750805b601f850160051c820191505b818110156200020457828155600101620001ef565b5050505b505050565b81516001600160401b0381111562000229576200022962000168565b62000241816200023a84546200017e565b84620001ba565b602080601f831160018114620002795760008415620002605750858301515b600019600386901b1c1916600185901b17855562000204565b600085815260208120601f198616915b82811015620002aa5788860151825594840194600190910190840162000289565b5085821015620002c95787850151600019600388901b60f8161c191681555b5050505050600190811b01905550565b61208080620002e96000396000f3fe608060405234801561001057600080fd5b50600436106100f45760003560e01c80634e1273f411610097578063e985e9c511610066578063e985e9c514610210578063f242432a1461024c578063f2fde38b1461025f578063ff97f6601461027257600080fd5b80634e1273f4146101ba578063715018a6146101da5780638da5cb5b146101e2578063a22cb465146101fd57600080fd5b80630c35a900116100d35780630c35a900146101625780630e89341c146101645780632eb2c2d614610184578063300ffc731461019757600080fd5b8062fdd58e146100f957806301ffc9a71461011f5780630c20a01f14610142575b600080fd5b61010c610107366004611556565b6102a0565b6040519081526020015b60405180910390f35b61013261012d366004611596565b610339565b6040519015158152602001610116565b6101556101503660046115c2565b610389565b6040516101169190611623565b005b610177610172366004611692565b610765565b60405161011691906116ab565b61016261019236600461180a565b6107f9565b6101aa6101a53660046115c2565b610845565b60405161011694939291906118b4565b6101cd6101c83660046118ff565b610a05565b6040516101169190611a05565b610162610b2f565b6003546040516001600160a01b039091168152602001610116565b61016261020b366004611a18565b610b41565b61013261021e366004611a54565b6001600160a01b03918216600090815260016020908152604080832093909416825291909152205460ff1690565b61016261025a366004611a87565b610b50565b61016261026d366004611aec565b610b95565b610132610280366004611b07565b600860209081526000928352604080842090915290825290205460ff1681565b60006001600160a01b0383166103105760405162461bcd60e51b815260206004820152602a60248201527f455243313135353a2061646472657373207a65726f206973206e6f742061207660448201526930b634b21037bbb732b960b11b60648201526084015b60405180910390fd5b506000818152602081815260408083206001600160a01b03861684529091529020545b92915050565b60006001600160e01b03198216636cdb3d1360e11b148061036a57506001600160e01b031982166303a24d0760e21b145b8061033357506301ffc9a760e01b6001600160e01b0319831614610333565b6103b46040518060800160405280606081526020016060815260200160608152602001600081525090565b336000908152600860205260408120908360028111156103d6576103d6611b31565b60028111156103e7576103e7611b31565b815260208101919091526040016000205460ff16156104595760405162461bcd60e51b815260206004820152602860248201527f596f75206861766520616c7265616479206d696e746564207468697320746f6b60448201526732b7103a3cb8329760c11b6064820152608401610307565b60006104866040518060800160405280606081526020016060815260200160608152602001600081525090565b600084600281111561049a5761049a611b31565b036104ae576104a7610c0e565b91506104f3565b60018460028111156104c2576104c2611b31565b036104cf576104a7610c86565b60028460028111156104e3576104e3611b31565b036104f3576104f0610cdc565b91505b816007600086600281111561050a5761050a611b31565b600281111561051b5761051b611b31565b81526020019081526020016000206003015411156105ca5760405180608001604052806040518060400160405280600a8152602001692132b0b9102a37b5b2b760b11b81525081526020016040518060600160405280602181526020016120086021913981526020016040518060400160405280601e81526020017f68747470733a2f2f6578616d706c652e636f6d2f626561725f696d6167650000815250815260200183815250905061065d565b60405180608001604052806040518060400160405280600a815260200169213ab636102a37b5b2b760b11b81525081526020016040518060600160405280602281526020016120296022913981526020016040518060400160405280601e81526020017f68747470733a2f2f6578616d706c652e636f6d2f62756c6c5f696d616765000081525081526020018381525090505b806007600086600281111561067457610674611b31565b600281111561068557610685611b31565b81526020810191909152604001600020815181906106a39082611bcc565b50602082015160018201906106b89082611bcc565b50604082015160028201906106cd9082611bcc565b50606091909101516003909101553360009081526008602052604081206001918660028111156106ff576106ff611b31565b600281111561071057610710611b31565b81526020810191909152604001600020805460ff191691151591909117905561075c3385600281111561074557610745611b31565b600160405180602001604052806000815250610d32565b9392505050565b565b60606002805461077490611b47565b80601f01602080910402602001604051908101604052809291908181526020018280546107a090611b47565b80156107ed5780601f106107c2576101008083540402835291602001916107ed565b820191906000526020600020905b8154815290600101906020018083116107d057829003601f168201915b50505050509050919050565b6001600160a01b0385163314806108155750610815853361021e565b6108315760405162461bcd60e51b815260040161030790611c8c565b61083e8585858585610e46565b5050505050565b60076020526000908152604090208054819061086090611b47565b80601f016020809104026020016040519081016040528092919081815260200182805461088c90611b47565b80156108d95780601f106108ae576101008083540402835291602001916108d9565b820191906000526020600020905b8154815290600101906020018083116108bc57829003601f168201915b5050505050908060010180546108ee90611b47565b80601f016020809104026020016040519081016040528092919081815260200182805461091a90611b47565b80156109675780601f1061093c57610100808354040283529160200191610967565b820191906000526020600020905b81548152906001019060200180831161094a57829003601f168201915b50505050509080600201805461097c90611b47565b80601f01602080910402602001604051908101604052809291908181526020018280546109a890611b47565b80156109f55780601f106109ca576101008083540402835291602001916109f5565b820191906000526020600020905b8154815290600101906020018083116109d857829003601f168201915b5050505050908060030154905084565b60608151835114610a6a5760405162461bcd60e51b815260206004820152602960248201527f455243313135353a206163636f756e747320616e6420696473206c656e677468604482015268040dad2e6dac2e8c6d60bb1b6064820152608401610307565b6000835167ffffffffffffffff811115610a8657610a866116be565b604051908082528060200260200182016040528015610aaf578160200160208202803683370190505b50905060005b8451811015610b2757610afa858281518110610ad357610ad3611cda565b6020026020010151858381518110610aed57610aed611cda565b60200260200101516102a0565b828281518110610b0c57610b0c611cda565b6020908102919091010152610b2081611d06565b9050610ab5565b509392505050565b610b37611023565b610763600061107d565b610b4c3383836110cf565b5050565b6001600160a01b038516331480610b6c5750610b6c853361021e565b610b885760405162461bcd60e51b815260040161030790611c8c565b61083e85858585856111af565b610b9d611023565b6001600160a01b038116610c025760405162461bcd60e51b815260206004820152602660248201527f4f776e61626c653a206e6577206f776e657220697320746865207a65726f206160448201526564647265737360d01b6064820152608401610307565b610c0b8161107d565b50565b6004805460408051633fabe5a360e21b8152905160009384936001600160a01b03169263feaf968c928183019260a0928290030181865afa158015610c57573d6000803e3d6000fd5b505050506040513d601f19601f82011682018060405250810190610c7b9190611d39565b509195945050505050565b600080600560009054906101000a90046001600160a01b03166001600160a01b031663feaf968c6040518163ffffffff1660e01b815260040160a060405180830381865afa158015610c57573d6000803e3d6000fd5b600080600660009054906101000a90046001600160a01b03166001600160a01b031663feaf968c6040518163ffffffff1660e01b815260040160a060405180830381865afa158015610c57573d6000803e3d6000fd5b6001600160a01b038416610d925760405162461bcd60e51b815260206004820152602160248201527f455243313135353a206d696e7420746f20746865207a65726f206164647265736044820152607360f81b6064820152608401610307565b336000610d9e856112d9565b90506000610dab856112d9565b90506000868152602081815260408083206001600160a01b038b16845290915281208054879290610ddd908490611d89565b909155505060408051878152602081018790526001600160a01b03808a1692600092918716917fc3d58168c5ae7397731d063d5bbf3d657854427343f4c083240f7aacaa2d0f62910160405180910390a4610e3d83600089898989611324565b50505050505050565b8151835114610ea85760405162461bcd60e51b815260206004820152602860248201527f455243313135353a2069647320616e6420616d6f756e7473206c656e677468206044820152670dad2e6dac2e8c6d60c31b6064820152608401610307565b6001600160a01b038416610ece5760405162461bcd60e51b815260040161030790611d9c565b3360005b8451811015610fb5576000858281518110610eef57610eef611cda565b602002602001015190506000858381518110610f0d57610f0d611cda565b602090810291909101810151600084815280835260408082206001600160a01b038e168352909352919091205490915081811015610f5d5760405162461bcd60e51b815260040161030790611de1565b6000838152602081815260408083206001600160a01b038e8116855292528083208585039055908b16825281208054849290610f9a908490611d89565b9250508190555050505080610fae90611d06565b9050610ed2565b50846001600160a01b0316866001600160a01b0316826001600160a01b03167f4a39dc06d4c0dbc64b70af90fd698a233a518aa5d07e595d983b8c0526c8f7fb8787604051611005929190611e2b565b60405180910390a461101b81878787878761147f565b505050505050565b6003546001600160a01b031633146107635760405162461bcd60e51b815260206004820181905260248201527f4f776e61626c653a2063616c6c6572206973206e6f7420746865206f776e65726044820152606401610307565b600380546001600160a01b038381166001600160a01b0319831681179093556040519116919082907f8be0079c531659141344cd1fd0a4f28419497f9722a3daafe3b4186f6b6457e090600090a35050565b816001600160a01b0316836001600160a01b0316036111425760405162461bcd60e51b815260206004820152602960248201527f455243313135353a2073657474696e6720617070726f76616c20737461747573604482015268103337b91039b2b63360b91b6064820152608401610307565b6001600160a01b03838116600081815260016020908152604080832094871680845294825291829020805460ff191686151590811790915591519182527f17307eab39ab6107e8899845ad3d59bd9653f200f220920489ca2b5937696c31910160405180910390a3505050565b6001600160a01b0384166111d55760405162461bcd60e51b815260040161030790611d9c565b3360006111e1856112d9565b905060006111ee856112d9565b90506000868152602081815260408083206001600160a01b038c168452909152902054858110156112315760405162461bcd60e51b815260040161030790611de1565b6000878152602081815260408083206001600160a01b038d8116855292528083208985039055908a1682528120805488929061126e908490611d89565b909155505060408051888152602081018890526001600160a01b03808b16928c821692918816917fc3d58168c5ae7397731d063d5bbf3d657854427343f4c083240f7aacaa2d0f62910160405180910390a46112ce848a8a8a8a8a611324565b505050505050505050565b6040805160018082528183019092526060916000919060208083019080368337019050509050828160008151811061131357611313611cda565b602090810291909101015292915050565b6001600160a01b0384163b1561101b5760405163f23a6e6160e01b81526001600160a01b0385169063f23a6e61906113689089908990889088908890600401611e59565b6020604051808303816000875af19250505080156113a3575060408051601f3d908101601f191682019092526113a091810190611e9e565b60015b61144f576113af611ebb565b806308c379a0036113e857506113c3611ed7565b806113ce57506113ea565b8060405162461bcd60e51b815260040161030791906116ab565b505b60405162461bcd60e51b815260206004820152603460248201527f455243313135353a207472616e7366657220746f206e6f6e2d455243313135356044820152732932b1b2b4bb32b91034b6b83632b6b2b73a32b960611b6064820152608401610307565b6001600160e01b0319811663f23a6e6160e01b14610e3d5760405162461bcd60e51b815260040161030790611f61565b6001600160a01b0384163b1561101b5760405163bc197c8160e01b81526001600160a01b0385169063bc197c81906114c39089908990889088908890600401611fa9565b6020604051808303816000875af19250505080156114fe575060408051601f3d908101601f191682019092526114fb91810190611e9e565b60015b61150a576113af611ebb565b6001600160e01b0319811663bc197c8160e01b14610e3d5760405162461bcd60e51b815260040161030790611f61565b80356001600160a01b038116811461155157600080fd5b919050565b6000806040838503121561156957600080fd5b6115728361153a565b946020939093013593505050565b6001600160e01b031981168114610c0b57600080fd5b6000602082840312156115a857600080fd5b813561075c81611580565b80356003811061155157600080fd5b6000602082840312156115d457600080fd5b61075c826115b3565b6000815180845260005b81811015611603576020818501810151868301820152016115e7565b506000602082860101526020601f19601f83011685010191505092915050565b60208152600082516080602084015261163f60a08401826115dd565b90506020840151601f198085840301604086015261165d83836115dd565b925060408601519150808584030160608601525061167b82826115dd565b915050606084015160808401528091505092915050565b6000602082840312156116a457600080fd5b5035919050565b60208152600061075c60208301846115dd565b634e487b7160e01b600052604160045260246000fd5b601f8201601f1916810167ffffffffffffffff811182821017156116fa576116fa6116be565b6040525050565b600067ffffffffffffffff82111561171b5761171b6116be565b5060051b60200190565b600082601f83011261173657600080fd5b8135602061174382611701565b60405161175082826116d4565b83815260059390931b850182019282810191508684111561177057600080fd5b8286015b8481101561178b5780358352918301918301611774565b509695505050505050565b600082601f8301126117a757600080fd5b813567ffffffffffffffff8111156117c1576117c16116be565b6040516117d8601f8301601f1916602001826116d4565b8181528460208386010111156117ed57600080fd5b816020850160208301376000918101602001919091529392505050565b600080600080600060a0868803121561182257600080fd5b61182b8661153a565b94506118396020870161153a565b9350604086013567ffffffffffffffff8082111561185657600080fd5b61186289838a01611725565b9450606088013591508082111561187857600080fd5b61188489838a01611725565b9350608088013591508082111561189a57600080fd5b506118a788828901611796565b9150509295509295909350565b6080815260006118c760808301876115dd565b82810360208401526118d981876115dd565b905082810360408401526118ed81866115dd565b91505082606083015295945050505050565b6000806040838503121561191257600080fd5b823567ffffffffffffffff8082111561192a57600080fd5b818501915085601f83011261193e57600080fd5b8135602061194b82611701565b60405161195882826116d4565b83815260059390931b850182019282810191508984111561197857600080fd5b948201945b8386101561199d5761198e8661153a565b8252948201949082019061197d565b965050860135925050808211156119b357600080fd5b506119c085828601611725565b9150509250929050565b600081518084526020808501945080840160005b838110156119fa578151875295820195908201906001016119de565b509495945050505050565b60208152600061075c60208301846119ca565b60008060408385031215611a2b57600080fd5b611a348361153a565b915060208301358015158114611a4957600080fd5b809150509250929050565b60008060408385031215611a6757600080fd5b611a708361153a565b9150611a7e6020840161153a565b90509250929050565b600080600080600060a08688031215611a9f57600080fd5b611aa88661153a565b9450611ab66020870161153a565b93506040860135925060608601359150608086013567ffffffffffffffff811115611ae057600080fd5b6118a788828901611796565b600060208284031215611afe57600080fd5b61075c8261153a565b60008060408385031215611b1a57600080fd5b611b238361153a565b9150611a7e602084016115b3565b634e487b7160e01b600052602160045260246000fd5b600181811c90821680611b5b57607f821691505b602082108103611b7b57634e487b7160e01b600052602260045260246000fd5b50919050565b601f821115611bc757600081815260208120601f850160051c81016020861015611ba85750805b601f850160051c820191505b8181101561101b57828155600101611bb4565b505050565b815167ffffffffffffffff811115611be657611be66116be565b611bfa81611bf48454611b47565b84611b81565b602080601f831160018114611c2f5760008415611c175750858301515b600019600386901b1c1916600185901b17855561101b565b600085815260208120601f198616915b82811015611c5e57888601518255948401946001909101908401611c3f565b5085821015611c7c5787850151600019600388901b60f8161c191681555b5050505050600190811b01905550565b6020808252602e908201527f455243313135353a2063616c6c6572206973206e6f7420746f6b656e206f776e60408201526d195c881bdc88185c1c1c9bdd995960921b606082015260800190565b634e487b7160e01b600052603260045260246000fd5b634e487b7160e01b600052601160045260246000fd5b600060018201611d1857611d18611cf0565b5060010190565b805169ffffffffffffffffffff8116811461155157600080fd5b600080600080600060a08688031215611d5157600080fd5b611d5a86611d1f565b9450602086015193506040860151925060608601519150611d7d60808701611d1f565b90509295509295909350565b8082018082111561033357610333611cf0565b60208082526025908201527f455243313135353a207472616e7366657220746f20746865207a65726f206164604082015264647265737360d81b606082015260800190565b6020808252602a908201527f455243313135353a20696e73756666696369656e742062616c616e636520666f60408201526939103a3930b739b332b960b11b606082015260800190565b604081526000611e3e60408301856119ca565b8281036020840152611e5081856119ca565b95945050505050565b6001600160a01b03868116825285166020820152604081018490526060810183905260a060808201819052600090611e93908301846115dd565b979650505050505050565b600060208284031215611eb057600080fd5b815161075c81611580565b600060033d1115611ed45760046000803e5060005160e01c5b90565b600060443d1015611ee55790565b6040516003193d81016004833e81513d67ffffffffffffffff8160248401118184111715611f1557505050505090565b8285019150815181811115611f2d5750505050505090565b843d8701016020828501011115611f475750505050505090565b611f56602082860101876116d4565b509095945050505050565b60208082526028908201527f455243313135353a204552433131353552656365697665722072656a656374656040820152676420746f6b656e7360c01b606082015260800190565b6001600160a01b0386811682528516602082015260a060408201819052600090611fd5908301866119ca565b8281036060840152611fe781866119ca565b90508281036080840152611ffb81856115dd565b9897505050505050505056fe5072696365206973206c6f776572207468616e206c61737420636865636b65642e507269636520697320686967686572207468616e206c61737420636865636b65642ea2646970667358221220b4dff0106063263913b931ca633776c0b3bc1caa72e50f30f17dfde07809cb7164736f6c63430008150033",
    "linkReferences": {}
  },
  "methodIdentifiers": {
    "balanceOf(address,uint256)": "00fdd58e",
    "balanceOfBatch(address[],uint256[])": "4e1273f4",
    "getLatestPrice(uint8)": "0c20a01f",
    "hasMinted(address,uint8)": "ff97f660",
    "isApprovedForAll(address,address)": "e985e9c5",
    "owner()": "8da5cb5b",
    "renounceOwnership()": "715018a6",
    "safeBatchTransferFrom(address,address,uint256[],uint256[],bytes)": "2eb2c2d6",
    "safeTransferFrom(address,address,uint256,uint256,bytes)": "f242432a",
    "setApprovalForAll(address,bool)": "a22cb465",
    "supportsInterface(bytes4)": "01ffc9a7",
    "tokenMetadata(uint8)": "300ffc73",
    "transferOwnership(address)": "f2fde38b",
    "updateMetadataHourly()": "0c35a900",
    "uri(uint256)": "0e89341c"
  },
  "id": 28
}