{
  "abi": [
    {
      "inputs": [
        {
          "internalType": "bool",
          "name": "doYou",
          "type": "bool"
        }
      ],
      "name": "doesKatyaLoveChristian",
      "outputs": [
        {
          "internalType": "string",
          "name": "answer",
          "type": "string"
        }
      ],
      "stateMutability": "nonpayable",
      "type": "function"
    },
    {
      "inputs": [],
      "name": "katyaLovesChristian",
      "outputs": [
        {
          "internalType": "bool",
          "name": "",
          "type": "bool"
        }
      ],
      "stateMutability": "view",
      "type": "function"
    }
  ],
  "bytecode": {
    "object": "0x60806040526000805460ff1916600117905534801561001d57600080fd5b506101ee8061002d6000396000f3fe608060405234801561001057600080fd5b50600436106100365760003560e01c8063da264d001461003b578063ecbb32531461005d575b600080fd5b6000546100489060ff1681565b60405190151581526020015b60405180910390f35b61007061006b3660046100f8565b61007d565b6040516100549190610121565b6060816100a757600191506040518060800160405280604981526020016101706049913992915050565b81156100f35750506000805460ff1916600117905560408051808201909152601a81527f5965732c204b61747961206c6f7665732043687269737469616e000000000000602082015290565b919050565b60006020828403121561010a57600080fd5b8135801515811461011a57600080fd5b9392505050565b600060208083528351808285015260005b8181101561014e57858101830151858201604001528201610132565b506000604082860101526040601f19601f830116850101925050509291505056fe5965732c204b61747961206c6f7665732043687269737469616e206275742068657220747970696e6720697320612062697420726574617264656420617420746865206d6f6d656e74a2646970667358221220a192dcfad7adaf2ba468048ba4ca87f56495d4fc65ac606369f1e2edbc5d98e564736f6c63430008150033",
    "linkReferences": {}
  },
  "methodIdentifiers": {
    "doesKatyaLoveChristian(bool)": "ecbb3253",
    "katyaLovesChristian()": "da264d00"
  },
  "id": 28
}