{
  "abi": [
    {
      "inputs": [
        {
          "internalType": "uint256",
          "name": "_initialValue",
          "type": "uint256"
        }
      ],
      "stateMutability": "nonpayable",
      "type": "constructor"
    },
    {
      "inputs": [
        {
          "internalType": "uint256",
          "name": "_a",
          "type": "uint256"
        },
        {
          "internalType": "uint256",
          "name": "_b",
          "type": "uint256"
        }
      ],
      "name": "addNumbers",
      "outputs": [
        {
          "internalType": "uint256",
          "name": "",
          "type": "uint256"
        }
      ],
      "stateMutability": "pure",
      "type": "function"
    },
    {
      "inputs": [
        {
          "internalType": "uint256",
          "name": "_number",
          "type": "uint256"
        }
      ],
      "name": "doubleNumber",
      "outputs": [
        {
          "internalType": "uint256",
          "name": "",
          "type": "uint256"
        }
      ],
      "stateMutability": "pure",
      "type": "function"
    },
    {
      "inputs": [
        {
          "internalType": "uint256",
          "name": "_newValue",
          "type": "uint256"
        }
      ],
      "name": "setStateVariable",
      "outputs": [],
      "stateMutability": "nonpayable",
      "type": "function"
    },
    {
      "inputs": [],
      "name": "stateVariable",
      "outputs": [
        {
          "internalType": "uint256",
          "name": "",
          "type": "uint256"
        }
      ],
      "stateMutability": "view",
      "type": "function"
    }
  ],
  "bytecode": {
    "object": "0x608060405234801561001057600080fd5b506040516101dd3803806101dd83398101604081905261002f91610037565b600055610050565b60006020828403121561004957600080fd5b5051919050565b61017e8061005f6000396000f3fe608060405234801561001057600080fd5b506004361061004c5760003560e01c806301cb08c514610051578063d30a6c8414610066578063e1967eae1461008b578063ef9fc50b14610094575b600080fd5b61006461005f3660046100cd565b600055565b005b6100796100743660046100cd565b6100a7565b60405190815260200160405180910390f35b61007960005481565b6100796100a23660046100e6565b6100ba565b60006100b482600261011e565b92915050565b60006100c68284610135565b9392505050565b6000602082840312156100df57600080fd5b5035919050565b600080604083850312156100f957600080fd5b50508035926020909101359150565b634e487b7160e01b600052601160045260246000fd5b80820281158282048414176100b4576100b4610108565b808201808211156100b4576100b461010856fea26469706673582212203e0ece388699ac6efe377cc59ca2bd3d08fbfc9185dc8fce881da71233a31c8064736f6c63430008150033",
    "linkReferences": {}
  },
  "methodIdentifiers": {
    "addNumbers(uint256,uint256)": "ef9fc50b",
    "doubleNumber(uint256)": "d30a6c84",
    "setStateVariable(uint256)": "01cb08c5",
    "stateVariable()": "e1967eae"
  },
  "id": 19
}