{
  "abi": [
    {
      "inputs": [
        {
          "internalType": "address",
          "name": "",
          "type": "address"
        },
        {
          "internalType": "address",
          "name": "",
          "type": "address"
        },
        {
          "internalType": "address",
          "name": "",
          "type": "address"
        }
      ],
      "stateMutability": "nonpayable",
      "type": "constructor"
    },
    {
      "anonymous": false,
      "inputs": [
        {
          "indexed": true,
          "internalType": "address",
          "name": "account",
          "type": "address"
        },
        {
          "indexed": true,
          "internalType": "address",
          "name": "operator",
          "type": "address"
        },
        {
          "indexed": false,
          "internalType": "bool",
          "name": "approved",
          "type": "bool"
        }
      ],
      "name": "ApprovalForAll",
      "type": "event"
    },
    {
      "anonymous": false,
      "inputs": [
        {
          "indexed": true,
          "internalType": "address",
          "name": "previousOwner",
          "type": "address"
        },
        {
          "indexed": true,
          "internalType": "address",
          "name": "newOwner",
          "type": "address"
        }
      ],
      "name": "OwnershipTransferred",
      "type": "event"
    },
    {
      "anonymous": false,
      "inputs": [
        {
          "indexed": true,
          "internalType": "uint256",
          "name": "tokenId",
          "type": "uint256"
        },
        {
          "indexed": false,
          "internalType": "string",
          "name": "pseudonym",
          "type": "string"
        },
        {
          "indexed": true,
          "internalType": "address",
          "name": "source",
          "type": "address"
        },
        {
          "indexed": false,
          "internalType": "uint256",
          "name": "closedPrice",
          "type": "uint256"
        },
        {
          "indexed": false,
          "internalType": "uint256",
          "name": "closedTimestamp",
          "type": "uint256"
        }
      ],
      "name": "TradeClosed",
      "type": "event"
    },
    {
      "anonymous": false,
      "inputs": [
        {
          "indexed": true,
          "internalType": "uint256",
          "name": "tokenId",
          "type": "uint256"
        },
        {
          "indexed": false,
          "internalType": "string",
          "name": "pseudonym",
          "type": "string"
        },
        {
          "indexed": true,
          "internalType": "address",
          "name": "source",
          "type": "address"
        },
        {
          "indexed": false,
          "internalType": "uint256",
          "name": "openPrice",
          "type": "uint256"
        },
        {
          "indexed": false,
          "internalType": "uint256",
          "name": "openedTimestamp",
          "type": "uint256"
        }
      ],
      "name": "TradeOpened",
      "type": "event"
    },
    {
      "anonymous": false,
      "inputs": [
        {
          "indexed": true,
          "internalType": "address",
          "name": "operator",
          "type": "address"
        },
        {
          "indexed": true,
          "internalType": "address",
          "name": "from",
          "type": "address"
        },
        {
          "indexed": true,
          "internalType": "address",
          "name": "to",
          "type": "address"
        },
        {
          "indexed": false,
          "internalType": "uint256[]",
          "name": "ids",
          "type": "uint256[]"
        },
        {
          "indexed": false,
          "internalType": "uint256[]",
          "name": "values",
          "type": "uint256[]"
        }
      ],
      "name": "TransferBatch",
      "type": "event"
    },
    {
      "anonymous": false,
      "inputs": [
        {
          "indexed": true,
          "internalType": "address",
          "name": "operator",
          "type": "address"
        },
        {
          "indexed": true,
          "internalType": "address",
          "name": "from",
          "type": "address"
        },
        {
          "indexed": true,
          "internalType": "address",
          "name": "to",
          "type": "address"
        },
        {
          "indexed": false,
          "internalType": "uint256",
          "name": "id",
          "type": "uint256"
        },
        {
          "indexed": false,
          "internalType": "uint256",
          "name": "value",
          "type": "uint256"
        }
      ],
      "name": "TransferSingle",
      "type": "event"
    },
    {
      "anonymous": false,
      "inputs": [
        {
          "indexed": false,
          "internalType": "string",
          "name": "value",
          "type": "string"
        },
        {
          "indexed": true,
          "internalType": "uint256",
          "name": "id",
          "type": "uint256"
        }
      ],
      "name": "URI",
      "type": "event"
    },
    {
      "inputs": [
        {
          "internalType": "address",
          "name": "account",
          "type": "address"
        },
        {
          "internalType": "uint256",
          "name": "id",
          "type": "uint256"
        }
      ],
      "name": "balanceOf",
      "outputs": [
        {
          "internalType": "uint256",
          "name": "",
          "type": "uint256"
        }
      ],
      "stateMutability": "view",
      "type": "function"
    },
    {
      "inputs": [
        {
          "internalType": "address[]",
          "name": "accounts",
          "type": "address[]"
        },
        {
          "internalType": "uint256[]",
          "name": "ids",
          "type": "uint256[]"
        }
      ],
      "name": "balanceOfBatch",
      "outputs": [
        {
          "internalType": "uint256[]",
          "name": "",
          "type": "uint256[]"
        }
      ],
      "stateMutability": "view",
      "type": "function"
    },
    {
      "inputs": [
        {
          "internalType": "uint256",
          "name": "tokenId",
          "type": "uint256"
        },
        {
          "internalType": "string",
          "name": "_pseudonym",
          "type": "string"
        }
      ],
      "name": "closeTrade",
      "outputs": [
        {
          "components": [
            {
              "internalType": "enum PseudonymousProofOftradeNFT.TokenType",
              "name": "tokenType",
              "type": "uint8"
            },
            {
              "internalType": "string",
              "name": "pseudonym",
              "type": "string"
            },
            {
              "internalType": "address",
              "name": "source",
              "type": "address"
            },
            {
              "internalType": "string",
              "name": "description",
              "type": "string"
            },
            {
              "internalType": "string",
              "name": "image",
              "type": "string"
            },
            {
              "internalType": "uint256",
              "name": "openPrice",
              "type": "uint256"
            },
            {
              "internalType": "uint256",
              "name": "openedTimestamp",
              "type": "uint256"
            },
            {
              "internalType": "uint256",
              "name": "closedTimestamp",
              "type": "uint256"
            },
            {
              "internalType": "uint256",
              "name": "closedPrice",
              "type": "uint256"
            }
          ],
          "internalType": "struct PseudonymousProofOftradeNFT.Metadata",
          "name": "",
          "type": "tuple"
        }
      ],
      "stateMutability": "nonpayable",
      "type": "function"
    },
    {
      "inputs": [
        {
          "internalType": "string",
          "name": "_pseudonym",
          "type": "string"
        }
      ],
      "name": "getTokenIdsByPseudonym",
      "outputs": [
        {
          "internalType": "uint256[]",
          "name": "",
          "type": "uint256[]"
        }
      ],
      "stateMutability": "view",
      "type": "function"
    },
    {
      "inputs": [
        {
          "internalType": "address",
          "name": "account",
          "type": "address"
        },
        {
          "internalType": "address",
          "name": "operator",
          "type": "address"
        }
      ],
      "name": "isApprovedForAll",
      "outputs": [
        {
          "internalType": "bool",
          "name": "",
          "type": "bool"
        }
      ],
      "stateMutability": "view",
      "type": "function"
    },
    {
      "inputs": [
        {
          "internalType": "enum PseudonymousProofOftradeNFT.TokenType",
          "name": "_tkr",
          "type": "uint8"
        },
        {
          "internalType": "string",
          "name": "_pseudonym",
          "type": "string"
        }
      ],
      "name": "openTrade",
      "outputs": [
        {
          "components": [
            {
              "internalType": "enum PseudonymousProofOftradeNFT.TokenType",
              "name": "tokenType",
              "type": "uint8"
            },
            {
              "internalType": "string",
              "name": "pseudonym",
              "type": "string"
            },
            {
              "internalType": "address",
              "name": "source",
              "type": "address"
            },
            {
              "internalType": "string",
              "name": "description",
              "type": "string"
            },
            {
              "internalType": "string",
              "name": "image",
              "type": "string"
            },
            {
              "internalType": "uint256",
              "name": "openPrice",
              "type": "uint256"
            },
            {
              "internalType": "uint256",
              "name": "openedTimestamp",
              "type": "uint256"
            },
            {
              "internalType": "uint256",
              "name": "closedTimestamp",
              "type": "uint256"
            },
            {
              "internalType": "uint256",
              "name": "closedPrice",
              "type": "uint256"
            }
          ],
          "internalType": "struct PseudonymousProofOftradeNFT.Metadata",
          "name": "",
          "type": "tuple"
        }
      ],
      "stateMutability": "nonpayable",
      "type": "function"
    },
    {
      "inputs": [],
      "name": "owner",
      "outputs": [
        {
          "internalType": "address",
          "name": "",
          "type": "address"
        }
      ],
      "stateMutability": "view",
      "type": "function"
    },
    {
      "inputs": [
        {
          "internalType": "string",
          "name": "",
          "type": "string"
        },
        {
          "internalType": "uint256",
          "name": "",
          "type": "uint256"
        }
      ],
      "name": "pseudonymToTokenIds",
      "outputs": [
        {
          "internalType": "uint256",
          "name": "",
          "type": "uint256"
        }
      ],
      "stateMutability": "view",
      "type": "function"
    },
    {
      "inputs": [],
      "name": "renounceOwnership",
      "outputs": [],
      "stateMutability": "nonpayable",
      "type": "function"
    },
    {
      "inputs": [
        {
          "internalType": "address",
          "name": "from",
          "type": "address"
        },
        {
          "internalType": "address",
          "name": "to",
          "type": "address"
        },
        {
          "internalType": "uint256[]",
          "name": "ids",
          "type": "uint256[]"
        },
        {
          "internalType": "uint256[]",
          "name": "amounts",
          "type": "uint256[]"
        },
        {
          "internalType": "bytes",
          "name": "data",
          "type": "bytes"
        }
      ],
      "name": "safeBatchTransferFrom",
      "outputs": [],
      "stateMutability": "nonpayable",
      "type": "function"
    },
    {
      "inputs": [
        {
          "internalType": "address",
          "name": "from",
          "type": "address"
        },
        {
          "internalType": "address",
          "name": "to",
          "type": "address"
        },
        {
          "internalType": "uint256",
          "name": "id",
          "type": "uint256"
        },
        {
          "internalType": "uint256",
          "name": "amount",
          "type": "uint256"
        },
        {
          "internalType": "bytes",
          "name": "data",
          "type": "bytes"
        }
      ],
      "name": "safeTransferFrom",
      "outputs": [],
      "stateMutability": "nonpayable",
      "type": "function"
    },
    {
      "inputs": [
        {
          "internalType": "address",
          "name": "operator",
          "type": "address"
        },
        {
          "internalType": "bool",
          "name": "approved",
          "type": "bool"
        }
      ],
      "name": "setApprovalForAll",
      "outputs": [],
      "stateMutability": "nonpayable",
      "type": "function"
    },
    {
      "inputs": [
        {
          "internalType": "string",
          "name": "newuri",
          "type": "string"
        }
      ],
      "name": "setURI",
      "outputs": [],
      "stateMutability": "nonpayable",
      "type": "function"
    },
    {
      "inputs": [
        {
          "internalType": "bytes4",
          "name": "interfaceId",
          "type": "bytes4"
        }
      ],
      "name": "supportsInterface",
      "outputs": [
        {
          "internalType": "bool",
          "name": "",
          "type": "bool"
        }
      ],
      "stateMutability": "view",
      "type": "function"
    },
    {
      "inputs": [
        {
          "internalType": "uint256",
          "name": "",
          "type": "uint256"
        }
      ],
      "name": "tokenMetadata",
      "outputs": [
        {
          "internalType": "enum PseudonymousProofOftradeNFT.TokenType",
          "name": "tokenType",
          "type": "uint8"
        },
        {
          "internalType": "string",
          "name": "pseudonym",
          "type": "string"
        },
        {
          "internalType": "address",
          "name": "source",
          "type": "address"
        },
        {
          "internalType": "string",
          "name": "description",
          "type": "string"
        },
        {
          "internalType": "string",
          "name": "image",
          "type": "string"
        },
        {
          "internalType": "uint256",
          "name": "openPrice",
          "type": "uint256"
        },
        {
          "internalType": "uint256",
          "name": "openedTimestamp",
          "type": "uint256"
        },
        {
          "internalType": "uint256",
          "name": "closedTimestamp",
          "type": "uint256"
        },
        {
          "internalType": "uint256",
          "name": "closedPrice",
          "type": "uint256"
        }
      ],
      "stateMutability": "view",
      "type": "function"
    },
    {
      "inputs": [
        {
          "internalType": "address",
          "name": "newOwner",
          "type": "address"
        }
      ],
      "name": "transferOwnership",
      "outputs": [],
      "stateMutability": "nonpayable",
      "type": "function"
    },
    {
      "inputs": [
        {
          "internalType": "uint256",
          "name": "",
          "type": "uint256"
        }
      ],
      "name": "uri",
      "outputs": [
        {
          "internalType": "string",
          "name": "",
          "type": "string"
        }
      ],
      "stateMutability": "view",
      "type": "function"
    }
  ],
  "bytecode": {
    "object": "0x608060405260006007553480156200001657600080fd5b5060405162002fdd38038062002fdd83398101604081905262000039916200014f565b6040805160208101909152600081526200005381620000ce565b506200005f33620000e0565b5050600480546001600160a01b031990811673f4030086522a5beea4988f8ca5b36dbc97bee88c17909155600580548216735f4ec3df9cbd43714fe2740f5e3616155c5b841917905560068054909116732c1d072e956affc0d435cb7ac38ef18d24d9127c179055506200030a565b6002620000dc82826200023e565b5050565b600380546001600160a01b038381166001600160a01b0319831681179093556040519116919082907f8be0079c531659141344cd1fd0a4f28419497f9722a3daafe3b4186f6b6457e090600090a35050565b80516001600160a01b03811681146200014a57600080fd5b919050565b6000806000606084860312156200016557600080fd5b620001708462000132565b9250620001806020850162000132565b9150620001906040850162000132565b90509250925092565b634e487b7160e01b600052604160045260246000fd5b600181811c90821680620001c457607f821691505b602082108103620001e557634e487b7160e01b600052602260045260246000fd5b50919050565b601f8211156200023957600081815260208120601f850160051c81016020861015620002145750805b601f850160051c820191505b81811015620002355782815560010162000220565b5050505b505050565b81516001600160401b038111156200025a576200025a62000199565b62000272816200026b8454620001af565b84620001eb565b602080601f831160018114620002aa5760008415620002915750858301515b600019600386901b1c1916600185901b17855562000235565b600085815260208120601f198616915b82811015620002db57888601518255948401946001909101908401620002ba565b5085821015620002fa5787850151600019600388901b60f8161c191681555b5050505050600190811b01905550565b612cc3806200031a6000396000f3fe608060405234801561001057600080fd5b506004361061010a5760003560e01c80636914db60116100a2578063a22cb46511610071578063a22cb46514610251578063b17b519e14610264578063e985e9c514610277578063f242432a146102b3578063f2fde38b146102c657600080fd5b80636914db60146101f3578063715018a61461021b5780638da5cb5b146102235780639522223f1461023e57600080fd5b80632271c333116100de5780632271c3331461018d5780632eb2c2d6146101ad5780634485de45146101c05780634e1273f4146101e057600080fd5b8062fdd58e1461010f57806301ffc9a71461013557806302fe5305146101585780630e89341c1461016d575b600080fd5b61012261011d366004611e16565b6102d9565b6040519081526020015b60405180910390f35b610148610143366004611e56565b610372565b604051901515815260200161012c565b61016b610166366004611f2f565b6103c2565b005b61018061017b366004611f6b565b6103d6565b60405161012c9190611fd4565b6101a061019b366004611fe7565b61046a565b60405161012c9190612072565b61016b6101bb3660046121c6565b61084b565b6101d36101ce366004611f2f565b610897565b60405161012c91906122aa565b6101d36101ee3660046122bd565b610906565b610206610201366004611f6b565b610a2f565b60405161012c9998979695949392919061237d565b61016b610c21565b6003546040516001600160a01b03909116815260200161012c565b61012261024c3660046123ff565b610c35565b61016b61025f366004612443565b610c75565b6101a061027236600461247f565b610c84565b6101486102853660046124af565b6001600160a01b03918216600090815260016020908152604080832093909416825291909152205460ff1690565b61016b6102c13660046124e2565b6113b1565b61016b6102d4366004612546565b6113f6565b60006001600160a01b0383166103495760405162461bcd60e51b815260206004820152602a60248201527f455243313135353a2061646472657373207a65726f206973206e6f742061207660448201526930b634b21037bbb732b960b11b60648201526084015b60405180910390fd5b506000818152602081815260408083206001600160a01b03861684529091529020545b92915050565b60006001600160e01b03198216636cdb3d1360e11b14806103a357506001600160e01b031982166303a24d0760e21b145b8061036c57506301ffc9a760e01b6001600160e01b031983161461036c565b6103ca61146c565b6103d3816114c6565b50565b6060600280546103e590612561565b80601f016020809104026020016040519081016040528092919081815260200182805461041190612561565b801561045e5780601f106104335761010080835404028352916020019161045e565b820191906000526020600020905b81548152906001019060200180831161044157829003601f168201915b50505050509050919050565b610472611da4565b81516000036104c35760405162461bcd60e51b815260206004820152601960248201527f50736575646f6e796d2063616e6e6f7420626520656d707479000000000000006044820152606401610340565b600080600754426104d491906125b1565b90506104de611da4565b60008660028111156104f2576104f261203a565b03610586576104ff6114d2565b6040805161012081019091529093508060008152602001868152602001336001600160a01b03168152602001604051806060016040528060388152602001612b56603891398152602001604051806060016040528060318152602001612c5d60319139815260200184815260200142815260200160008152602001600081525090506106d2565b600186600281111561059a5761059a61203a565b0361062e576105a761154a565b6040805161012081019091529093508060018152602001868152602001336001600160a01b031681526020016040518060600160405280603a8152602001612b1c603a91398152602001604051806060016040528060318152602001612ac360319139815260200184815260200142815260200160008152602001600081525090506106d2565b60028660028111156106425761064261203a565b036106d25761064f6115a0565b6040805161012081019091529093508060028152602001868152602001336001600160a01b031681526020016040518060600160405280603b8152602001612a88603b91398152602001604051806060016040528060328152602001612bdc60329139815260200184815260200142815260200160008152602001600081525090505b60008281526008602052604090208151815483929190829060ff191660018360028111156107025761070261203a565b02179055506020820151600182019061071b908261260f565b5060408201516002820180546001600160a01b0319166001600160a01b0390921691909117905560608201516003820190610756908261260f565b506080820151600482019061076b908261260f565b5060a0820151816005015560c0820151816006015560e0820151816007015561010082015181600801559050506009856040516107a891906126ce565b90815260408051918290036020908101832080546001818101835560009283528383209091018790559184019092529082526107e791339185916115f6565b600780549060006107f7836126ea565b9190505550336001600160a01b0316827f7f7022508cbdab5bbbd9671d98fb9de73ec36e08b8d2cc4418d258c50af26f3587864260405161083a93929190612703565b60405180910390a395945050505050565b6001600160a01b03851633148061086757506108678533610285565b6108835760405162461bcd60e51b815260040161034090612728565b610890858585858561170a565b5050505050565b60606009826040516108a991906126ce565b908152604080519182900360209081018320805480830285018301909352828452919083018282801561045e57602002820191906000526020600020905b8154815260200190600101908083116108e75750505050509050919050565b6060815183511461096b5760405162461bcd60e51b815260206004820152602960248201527f455243313135353a206163636f756e747320616e6420696473206c656e677468604482015268040dad2e6dac2e8c6d60bb1b6064820152608401610340565b600083516001600160401b0381111561098657610986611e7a565b6040519080825280602002602001820160405280156109af578160200160208202803683370190505b50905060005b8451811015610a27576109fa8582815181106109d3576109d3612776565b60200260200101518583815181106109ed576109ed612776565b60200260200101516102d9565b828281518110610a0c57610a0c612776565b6020908102919091010152610a20816126ea565b90506109b5565b509392505050565b6008602052600090815260409020805460018201805460ff9092169291610a5590612561565b80601f0160208091040260200160405190810160405280929190818152602001828054610a8190612561565b8015610ace5780601f10610aa357610100808354040283529160200191610ace565b820191906000526020600020905b815481529060010190602001808311610ab157829003601f168201915b505050600284015460038501805494956001600160a01b03909216949193509150610af890612561565b80601f0160208091040260200160405190810160405280929190818152602001828054610b2490612561565b8015610b715780601f10610b4657610100808354040283529160200191610b71565b820191906000526020600020905b815481529060010190602001808311610b5457829003601f168201915b505050505090806004018054610b8690612561565b80601f0160208091040260200160405190810160405280929190818152602001828054610bb290612561565b8015610bff5780601f10610bd457610100808354040283529160200191610bff565b820191906000526020600020905b815481529060010190602001808311610be257829003601f168201915b5050505050908060050154908060060154908060070154908060080154905089565b610c2961146c565b610c3360006118e7565b565b81516020818401810180516009825292820191850191909120919052805482908110610c6057600080fd5b90600052602060002001600091509150505481565b610c80338383611939565b5050565b610c8c611da4565b600083815260086020526040808220815161012081019092528054829060ff166002811115610cbd57610cbd61203a565b6002811115610cce57610cce61203a565b8152602001600182018054610ce290612561565b80601f0160208091040260200160405190810160405280929190818152602001828054610d0e90612561565b8015610d5b5780601f10610d3057610100808354040283529160200191610d5b565b820191906000526020600020905b815481529060010190602001808311610d3e57829003601f168201915b505050918352505060028201546001600160a01b03166020820152600382018054604090920191610d8b90612561565b80601f0160208091040260200160405190810160405280929190818152602001828054610db790612561565b8015610e045780601f10610dd957610100808354040283529160200191610e04565b820191906000526020600020905b815481529060010190602001808311610de757829003601f168201915b50505050508152602001600482018054610e1d90612561565b80601f0160208091040260200160405190810160405280929190818152602001828054610e4990612561565b8015610e965780601f10610e6b57610100808354040283529160200191610e96565b820191906000526020600020905b815481529060010190602001808311610e7957829003601f168201915b505050505081526020016005820154815260200160068201548152602001600782015481526020016008820154815250509050336001600160a01b031681604001516001600160a01b031614610f405760405162461bcd60e51b815260206004820152602960248201527f4f6e6c792074686520736f75726365206f66207468652074726164652063616e6044820152680818db1bdcd9481a5d60ba1b6064820152608401610340565b602080820151604051610f5392016126ce565b6040516020818303038152906040528051906020012083604051602001610f7a91906126ce565b6040516020818303038152906040528051906020012014610fd85760405162461bcd60e51b81526020600482015260186024820152770a0e6caeac8dedcf2da40c8decae640dcdee840dac2e8c6d60431b6044820152606401610340565b60e08101511561102a5760405162461bcd60e51b815260206004820152601760248201527f547261646520697320616c726561647920636c6f7365640000000000000000006044820152606401610340565b80600080835160028111156110415761104161203a565b036110b15761104e6114d2565b61010083018190524260e084015260a084015190915081111561108e57604051806060016040528060278152602001612a616027913960808301526111b7565b604051806060016040528060278152602001612bb56027913960808301526111b7565b6001835160028111156110c6576110c661203a565b03611136576110d361154a565b61010083018190524260e084015260a084015190915081111561111357604051806060016040528060278152602001612b8e6027913960808301526111b7565b604051806060016040528060278152602001612c366027913960808301526111b7565b60028351600281111561114b5761114b61203a565b036111b7576111586115a0565b61010083018190524260e084015260a084015190915081111561119857604051806060016040528060288152602001612c0e6028913960808301526111b7565b604051806060016040528060288152602001612af46028913960808301525b6020808401516040516111ca92016126ce565b60405160208183030381529060405280519060200120856040516020016111f191906126ce565b604051602081830303815290604052805190602001201461124f5760405162461bcd60e51b81526020600482015260186024820152770a0e6caeac8dedcf2da40c8decae640dcdee840dac2e8c6d60431b6044820152606401610340565b604080518082018252601a81527f5468697320747261646520686173206265656e20636c6f736564000000000000602080830191909152606085019190915260008881526008909152208251815484929190829060ff191660018360028111156112bb576112bb61203a565b0217905550602082015160018201906112d4908261260f565b5060408201516002820180546001600160a01b0319166001600160a01b039092169190911790556060820151600382019061130f908261260f565b5060808201516004820190611324908261260f565b5060a0820151816005015560c0820151816006015560e08201518160070155610100820151816008015590505082604001516001600160a01b0316867f3b9fec03a835f5d45c06123b3c965323a21c1d2f8ed7315083c81399ad7f397485602001518561010001518660e001516040516113a093929190612703565b60405180910390a350949350505050565b6001600160a01b0385163314806113cd57506113cd8533610285565b6113e95760405162461bcd60e51b815260040161034090612728565b6108908585858585611a19565b6113fe61146c565b6001600160a01b0381166114635760405162461bcd60e51b815260206004820152602660248201527f4f776e61626c653a206e6577206f776e657220697320746865207a65726f206160448201526564647265737360d01b6064820152608401610340565b6103d3816118e7565b6003546001600160a01b03163314610c335760405162461bcd60e51b815260206004820181905260248201527f4f776e61626c653a2063616c6c6572206973206e6f7420746865206f776e65726044820152606401610340565b6002610c80828261260f565b6004805460408051633fabe5a360e21b8152905160009384936001600160a01b03169263feaf968c928183019260a0928290030181865afa15801561151b573d6000803e3d6000fd5b505050506040513d601f19601f8201168201806040525081019061153f91906127a6565b509195945050505050565b600080600560009054906101000a90046001600160a01b03166001600160a01b031663feaf968c6040518163ffffffff1660e01b815260040160a060405180830381865afa15801561151b573d6000803e3d6000fd5b600080600660009054906101000a90046001600160a01b03166001600160a01b031663feaf968c6040518163ffffffff1660e01b815260040160a060405180830381865afa15801561151b573d6000803e3d6000fd5b6001600160a01b0384166116565760405162461bcd60e51b815260206004820152602160248201527f455243313135353a206d696e7420746f20746865207a65726f206164647265736044820152607360f81b6064820152608401610340565b33600061166285611b43565b9050600061166f85611b43565b90506000868152602081815260408083206001600160a01b038b168452909152812080548792906116a19084906125b1565b909155505060408051878152602081018790526001600160a01b03808a1692600092918716917fc3d58168c5ae7397731d063d5bbf3d657854427343f4c083240f7aacaa2d0f62910160405180910390a461170183600089898989611b8e565b50505050505050565b815183511461176c5760405162461bcd60e51b815260206004820152602860248201527f455243313135353a2069647320616e6420616d6f756e7473206c656e677468206044820152670dad2e6dac2e8c6d60c31b6064820152608401610340565b6001600160a01b0384166117925760405162461bcd60e51b8152600401610340906127f6565b3360005b84518110156118795760008582815181106117b3576117b3612776565b6020026020010151905060008583815181106117d1576117d1612776565b602090810291909101810151600084815280835260408082206001600160a01b038e1683529093529190912054909150818110156118215760405162461bcd60e51b81526004016103409061283b565b6000838152602081815260408083206001600160a01b038e8116855292528083208585039055908b1682528120805484929061185e9084906125b1565b9250508190555050505080611872906126ea565b9050611796565b50846001600160a01b0316866001600160a01b0316826001600160a01b03167f4a39dc06d4c0dbc64b70af90fd698a233a518aa5d07e595d983b8c0526c8f7fb87876040516118c9929190612885565b60405180910390a46118df818787878787611ce9565b505050505050565b600380546001600160a01b038381166001600160a01b0319831681179093556040519116919082907f8be0079c531659141344cd1fd0a4f28419497f9722a3daafe3b4186f6b6457e090600090a35050565b816001600160a01b0316836001600160a01b0316036119ac5760405162461bcd60e51b815260206004820152602960248201527f455243313135353a2073657474696e6720617070726f76616c20737461747573604482015268103337b91039b2b63360b91b6064820152608401610340565b6001600160a01b03838116600081815260016020908152604080832094871680845294825291829020805460ff191686151590811790915591519182527f17307eab39ab6107e8899845ad3d59bd9653f200f220920489ca2b5937696c31910160405180910390a3505050565b6001600160a01b038416611a3f5760405162461bcd60e51b8152600401610340906127f6565b336000611a4b85611b43565b90506000611a5885611b43565b90506000868152602081815260408083206001600160a01b038c16845290915290205485811015611a9b5760405162461bcd60e51b81526004016103409061283b565b6000878152602081815260408083206001600160a01b038d8116855292528083208985039055908a16825281208054889290611ad89084906125b1565b909155505060408051888152602081018890526001600160a01b03808b16928c821692918816917fc3d58168c5ae7397731d063d5bbf3d657854427343f4c083240f7aacaa2d0f62910160405180910390a4611b38848a8a8a8a8a611b8e565b505050505050505050565b60408051600180825281830190925260609160009190602080830190803683370190505090508281600081518110611b7d57611b7d612776565b602090810291909101015292915050565b6001600160a01b0384163b156118df5760405163f23a6e6160e01b81526001600160a01b0385169063f23a6e6190611bd290899089908890889088906004016128b3565b6020604051808303816000875af1925050508015611c0d575060408051601f3d908101601f19168201909252611c0a918101906128f8565b60015b611cb957611c19612915565b806308c379a003611c525750611c2d612931565b80611c385750611c54565b8060405162461bcd60e51b81526004016103409190611fd4565b505b60405162461bcd60e51b815260206004820152603460248201527f455243313135353a207472616e7366657220746f206e6f6e2d455243313135356044820152732932b1b2b4bb32b91034b6b83632b6b2b73a32b960611b6064820152608401610340565b6001600160e01b0319811663f23a6e6160e01b146117015760405162461bcd60e51b8152600401610340906129ba565b6001600160a01b0384163b156118df5760405163bc197c8160e01b81526001600160a01b0385169063bc197c8190611d2d9089908990889088908890600401612a02565b6020604051808303816000875af1925050508015611d68575060408051601f3d908101601f19168201909252611d65918101906128f8565b60015b611d7457611c19612915565b6001600160e01b0319811663bc197c8160e01b146117015760405162461bcd60e51b8152600401610340906129ba565b60408051610120810190915280600081526020016060815260200160006001600160a01b031681526020016060815260200160608152602001600081526020016000815260200160008152602001600081525090565b80356001600160a01b0381168114611e1157600080fd5b919050565b60008060408385031215611e2957600080fd5b611e3283611dfa565b946020939093013593505050565b6001600160e01b0319811681146103d357600080fd5b600060208284031215611e6857600080fd5b8135611e7381611e40565b9392505050565b634e487b7160e01b600052604160045260246000fd5b601f8201601f191681016001600160401b0381118282101715611eb557611eb5611e7a565b6040525050565b600082601f830112611ecd57600080fd5b81356001600160401b03811115611ee657611ee6611e7a565b604051611efd601f8301601f191660200182611e90565b818152846020838601011115611f1257600080fd5b816020850160208301376000918101602001919091529392505050565b600060208284031215611f4157600080fd5b81356001600160401b03811115611f5757600080fd5b611f6384828501611ebc565b949350505050565b600060208284031215611f7d57600080fd5b5035919050565b60005b83811015611f9f578181015183820152602001611f87565b50506000910152565b60008151808452611fc0816020860160208601611f84565b601f01601f19169290920160200192915050565b602081526000611e736020830184611fa8565b60008060408385031215611ffa57600080fd5b82356003811061200957600080fd5b915060208301356001600160401b0381111561202457600080fd5b61203085828601611ebc565b9150509250929050565b634e487b7160e01b600052602160045260246000fd5b6003811061206e57634e487b7160e01b600052602160045260246000fd5b9052565b60208152612084602082018351612050565b600060208301516101208060408501526120a2610140850183611fa8565b915060408501516120be60608601826001600160a01b03169052565b506060850151601f19808685030160808701526120db8483611fa8565b935060808701519150808685030160a0870152506120f98382611fa8565b92505060a085015160c085015260c085015160e085015260e0850151610100818187015280870151838701525050508091505092915050565b60006001600160401b0382111561214b5761214b611e7a565b5060051b60200190565b600082601f83011261216657600080fd5b8135602061217382612132565b6040516121808282611e90565b83815260059390931b85018201928281019150868411156121a057600080fd5b8286015b848110156121bb57803583529183019183016121a4565b509695505050505050565b600080600080600060a086880312156121de57600080fd5b6121e786611dfa565b94506121f560208701611dfa565b935060408601356001600160401b038082111561221157600080fd5b61221d89838a01612155565b9450606088013591508082111561223357600080fd5b61223f89838a01612155565b9350608088013591508082111561225557600080fd5b5061226288828901611ebc565b9150509295509295909350565b600081518084526020808501945080840160005b8381101561229f57815187529582019590820190600101612283565b509495945050505050565b602081526000611e73602083018461226f565b600080604083850312156122d057600080fd5b82356001600160401b03808211156122e757600080fd5b818501915085601f8301126122fb57600080fd5b8135602061230882612132565b6040516123158282611e90565b83815260059390931b850182019282810191508984111561233557600080fd5b948201945b8386101561235a5761234b86611dfa565b8252948201949082019061233a565b9650508601359250508082111561237057600080fd5b5061203085828601612155565b600061012061238c838d612050565b80602084015261239e8184018c611fa8565b6001600160a01b038b166040850152838103606085015290506123c1818a611fa8565b905082810360808401526123d58189611fa8565b9150508560a08301528460c08301528360e0830152826101008301529a9950505050505050505050565b6000806040838503121561241257600080fd5b82356001600160401b0381111561242857600080fd5b61243485828601611ebc565b95602094909401359450505050565b6000806040838503121561245657600080fd5b61245f83611dfa565b91506020830135801515811461247457600080fd5b809150509250929050565b6000806040838503121561249257600080fd5b8235915060208301356001600160401b0381111561202457600080fd5b600080604083850312156124c257600080fd5b6124cb83611dfa565b91506124d960208401611dfa565b90509250929050565b600080600080600060a086880312156124fa57600080fd5b61250386611dfa565b945061251160208701611dfa565b9350604086013592506060860135915060808601356001600160401b0381111561253a57600080fd5b61226288828901611ebc565b60006020828403121561255857600080fd5b611e7382611dfa565b600181811c9082168061257557607f821691505b60208210810361259557634e487b7160e01b600052602260045260246000fd5b50919050565b634e487b7160e01b600052601160045260246000fd5b8082018082111561036c5761036c61259b565b601f82111561260a57600081815260208120601f850160051c810160208610156125eb5750805b601f850160051c820191505b818110156118df578281556001016125f7565b505050565b81516001600160401b0381111561262857612628611e7a565b61263c816126368454612561565b846125c4565b602080601f83116001811461267157600084156126595750858301515b600019600386901b1c1916600185901b1785556118df565b600085815260208120601f198616915b828110156126a057888601518255948401946001909101908401612681565b50858210156126be5787850151600019600388901b60f8161c191681555b5050505050600190811b01905550565b600082516126e0818460208701611f84565b9190910192915050565b6000600182016126fc576126fc61259b565b5060010190565b6060815260006127166060830186611fa8565b60208301949094525060400152919050565b6020808252602e908201527f455243313135353a2063616c6c6572206973206e6f7420746f6b656e206f776e60408201526d195c881bdc88185c1c1c9bdd995960921b606082015260800190565b634e487b7160e01b600052603260045260246000fd5b805169ffffffffffffffffffff81168114611e1157600080fd5b600080600080600060a086880312156127be57600080fd5b6127c78661278c565b94506020860151935060408601519250606086015191506127ea6080870161278c565b90509295509295909350565b60208082526025908201527f455243313135353a207472616e7366657220746f20746865207a65726f206164604082015264647265737360d81b606082015260800190565b6020808252602a908201527f455243313135353a20696e73756666696369656e742062616c616e636520666f60408201526939103a3930b739b332b960b11b606082015260800190565b604081526000612898604083018561226f565b82810360208401526128aa818561226f565b95945050505050565b6001600160a01b03868116825285166020820152604081018490526060810183905260a0608082018190526000906128ed90830184611fa8565b979650505050505050565b60006020828403121561290a57600080fd5b8151611e7381611e40565b600060033d111561292e5760046000803e5060005160e01c5b90565b600060443d101561293f5790565b6040516003193d81016004833e81513d6001600160401b03816024840111818411171561296e57505050505090565b82850191508151818111156129865750505050505090565b843d87010160208285010111156129a05750505050505090565b6129af60208286010187611e90565b509095945050505050565b60208082526028908201527f455243313135353a204552433131353552656365697665722072656a656374656040820152676420746f6b656e7360c01b606082015260800190565b6001600160a01b0386811682528516602082015260a060408201819052600090612a2e9083018661226f565b8281036060840152612a40818661226f565b90508281036080840152612a548185611fa8565b9897505050505050505056fe68747470733a2f2f70686f746f6275636b65742e636f6d2f4254435f62756c6c5f636c6f736564546869732069732061204c494e4b20746f6b656e206d696e746564207768656e20746865204c696e6b20747261646520776173206f70656e65642e68747470733a2f2f70686f746f6275636b65742e636f6d2f45544848656c6462794761727947656e736c6572696d61676568747470733a2f2f70686f746f6275636b65742e636f6d2f4c494e4b5f626561725f636c6f7365645468697320697320616e2045544820746f6b656e206d696e746564207768656e207468652045544820747261646520776173206f70656e65642e5468697320697320612042544320746f6b656e206d696e746564207768656e207468652042544320747261646520776173206f70656e656468747470733a2f2f70686f746f6275636b65742e636f6d2f4554485f62756c6c5f636c6f73656468747470733a2f2f70686f746f6275636b65742e636f6d2f4254435f626561725f636c6f73656468747470733a2f2f70686f746f6275636b65742e636f6d2f4c494e4b48656c6462794761727947656e736c6572696d61676568747470733a2f2f70686f746f6275636b65742e636f6d2f4c494e4b5f62756c6c5f636c6f73656468747470733a2f2f70686f746f6275636b65742e636f6d2f4554485f626561725f636c6f73656468747470733a2f2f70686f746f6275636b65742e636f6d2f42544348656c6462794761727947656e736c6572696d616765a2646970667358221220f5552eb2ec004e9e3cd96a9521b3784b19512b8b8544e300f7be773efb06603064736f6c63430008150033",
    "linkReferences": {}
  },
  "methodIdentifiers": {
    "balanceOf(address,uint256)": "00fdd58e",
    "balanceOfBatch(address[],uint256[])": "4e1273f4",
    "closeTrade(uint256,string)": "b17b519e",
    "getTokenIdsByPseudonym(string)": "4485de45",
    "isApprovedForAll(address,address)": "e985e9c5",
    "openTrade(uint8,string)": "2271c333",
    "owner()": "8da5cb5b",
    "pseudonymToTokenIds(string,uint256)": "9522223f",
    "renounceOwnership()": "715018a6",
    "safeBatchTransferFrom(address,address,uint256[],uint256[],bytes)": "2eb2c2d6",
    "safeTransferFrom(address,address,uint256,uint256,bytes)": "f242432a",
    "setApprovalForAll(address,bool)": "a22cb465",
    "setURI(string)": "02fe5305",
    "supportsInterface(bytes4)": "01ffc9a7",
    "tokenMetadata(uint256)": "6914db60",
    "transferOwnership(address)": "f2fde38b",
    "uri(uint256)": "0e89341c"
  },
  "id": 39
}