{
  "abi": [
    {
      "inputs": [
        {
          "internalType": "int256",
          "name": "_price",
          "type": "int256"
        }
      ],
      "stateMutability": "nonpayable",
      "type": "constructor"
    },
    {
      "inputs": [],
      "name": "latestRoundData",
      "outputs": [
        {
          "internalType": "uint80",
          "name": "roundID",
          "type": "uint80"
        },
        {
          "internalType": "int256",
          "name": "answer",
          "type": "int256"
        },
        {
          "internalType": "uint256",
          "name": "startedAt",
          "type": "uint256"
        },
        {
          "internalType": "uint256",
          "name": "updatedAt",
          "type": "uint256"
        },
        {
          "internalType": "uint80",
          "name": "answeredInRound",
          "type": "uint80"
        }
      ],
      "stateMutability": "view",
      "type": "function"
    },
    {
      "inputs": [],
      "name": "price",
      "outputs": [
        {
          "internalType": "int256",
          "name": "",
          "type": "int256"
        }
      ],
      "stateMutability": "view",
      "type": "function"
    },
    {
      "inputs": [
        {
          "internalType": "int256",
          "name": "_price",
          "type": "int256"
        }
      ],
      "name": "setPrice",
      "outputs": [],
      "stateMutability": "nonpayable",
      "type": "function"
    }
  ],
  "bytecode": {
    "object": "0x608060405234801561001057600080fd5b5060405161014838038061014883398101604081905261002f91610037565b600055610050565b60006020828403121561004957600080fd5b5051919050565b60ea8061005e6000396000f3fe6080604052348015600f57600080fd5b5060043610603c5760003560e01c8063a035b1fe146041578063f7a3080614605c578063feaf968c14606e575b600080fd5b604960005481565b6040519081526020015b60405180910390f35b606c6067366004609c565b600055565b005b60008054604080518381526020810192909252810182905260608101829052608081019190915260a0016053565b60006020828403121560ad57600080fd5b503591905056fea2646970667358221220c996393b5b7a02bec6f7add29f434bea734ea15e6b15458cb0767664a6f17cd064736f6c63430008150033",
    "linkReferences": {}
  },
  "methodIdentifiers": {
    "latestRoundData()": "feaf968c",
    "price()": "a035b1fe",
    "setPrice(int256)": "f7a30806"
  },
  "id": 29
}